{
	"contracts/bank.sol": {
		"Bank": {
			"abi": [
				{
					"inputs": [],
					"stateMutability": "nonpayable",
					"type": "constructor"
				},
				{
					"inputs": [],
					"name": "admin",
					"outputs": [
						{
							"internalType": "address",
							"name": "",
							"type": "address"
						}
					],
					"stateMutability": "view",
					"type": "function"
				},
				{
					"inputs": [
						{
							"internalType": "address",
							"name": "",
							"type": "address"
						}
					],
					"name": "balances",
					"outputs": [
						{
							"internalType": "uint256",
							"name": "",
							"type": "uint256"
						}
					],
					"stateMutability": "view",
					"type": "function"
				},
				{
					"inputs": [],
					"name": "deposit",
					"outputs": [],
					"stateMutability": "payable",
					"type": "function"
				},
				{
					"inputs": [],
					"name": "getTopDepositors",
					"outputs": [
						{
							"internalType": "address[]",
							"name": "",
							"type": "address[]"
						}
					],
					"stateMutability": "view",
					"type": "function"
				},
				{
					"inputs": [
						{
							"internalType": "uint256",
							"name": "",
							"type": "uint256"
						}
					],
					"name": "topDepositors",
					"outputs": [
						{
							"internalType": "address",
							"name": "",
							"type": "address"
						}
					],
					"stateMutability": "view",
					"type": "function"
				},
				{
					"inputs": [],
					"name": "withdraw",
					"outputs": [],
					"stateMutability": "nonpayable",
					"type": "function"
				},
				{
					"stateMutability": "payable",
					"type": "receive"
				}
			],
			"devdoc": {
				"kind": "dev",
				"methods": {},
				"version": 1
			},
			"evm": {
				"assembly": "    /* \"contracts/bank.sol\":319:3107  contract Bank {... */\n  mstore(0x40, 0x80)\n    /* \"contracts/bank.sol\":513:598  constructor() {... */\n  callvalue\n  dup1\n  iszero\n  tag_1\n  jumpi\n  revert(0x00, 0x00)\ntag_1:\n  pop\n    /* \"contracts/bank.sol\":545:555  msg.sender */\n  caller\n    /* \"contracts/bank.sol\":537:542  admin */\n  0x00\n  0x00\n    /* \"contracts/bank.sol\":537:555  admin = msg.sender */\n  0x0100\n  exp\n  dup2\n  sload\n  dup2\n  0xffffffffffffffffffffffffffffffffffffffff\n  mul\n  not\n  and\n  swap1\n  dup4\n  0xffffffffffffffffffffffffffffffffffffffff\n  and\n  mul\n  or\n  swap1\n  sstore\n  pop\n    /* \"contracts/bank.sol\":319:3107  contract Bank {... */\n  dataSize(sub_0)\n  dup1\n  dataOffset(sub_0)\n  0x00\n  codecopy\n  0x00\n  return\nstop\n\nsub_0: assembly {\n        /* \"contracts/bank.sol\":319:3107  contract Bank {... */\n      mstore(0x40, 0x80)\n      jumpi(tag_1, lt(calldatasize, 0x04))\n      shr(0xe0, calldataload(0x00))\n      dup1\n      0x27e235e3\n      eq\n      tag_3\n      jumpi\n      dup1\n      0x30861078\n      eq\n      tag_4\n      jumpi\n      dup1\n      0x3ccfd60b\n      eq\n      tag_5\n      jumpi\n      dup1\n      0x81454f71\n      eq\n      tag_6\n      jumpi\n      dup1\n      0xd0e30db0\n      eq\n      tag_7\n      jumpi\n      dup1\n      0xf851a440\n      eq\n      tag_8\n      jumpi\n      jump(tag_2)\n    tag_1:\n      jumpi(tag_2, calldatasize)\n        /* \"contracts/bank.sol\":700:709  deposit() */\n      tag_11\n        /* \"contracts/bank.sol\":700:707  deposit */\n      tag_12\n        /* \"contracts/bank.sol\":700:709  deposit() */\n      jump\t// in\n    tag_11:\n        /* \"contracts/bank.sol\":719:743  recomputeTopDepositors() */\n      tag_13\n        /* \"contracts/bank.sol\":719:741  recomputeTopDepositors */\n      tag_14\n        /* \"contracts/bank.sol\":719:743  recomputeTopDepositors() */\n      jump\t// in\n    tag_13:\n        /* \"contracts/bank.sol\":319:3107  contract Bank {... */\n      stop\n    tag_2:\n      revert(0x00, 0x00)\n        /* \"contracts/bank.sol\":365:405  mapping(address => uint) public balances */\n    tag_3:\n      callvalue\n      dup1\n      iszero\n      tag_15\n      jumpi\n      revert(0x00, 0x00)\n    tag_15:\n      pop\n      tag_16\n      0x04\n      dup1\n      calldatasize\n      sub\n      dup2\n      add\n      swap1\n      tag_17\n      swap2\n      swap1\n      tag_18\n      jump\t// in\n    tag_17:\n      tag_19\n      jump\t// in\n    tag_16:\n      mload(0x40)\n      tag_20\n      swap2\n      swap1\n      tag_21\n      jump\t// in\n    tag_20:\n      mload(0x40)\n      dup1\n      swap2\n      sub\n      swap1\n      return\n        /* \"contracts/bank.sol\":447:477  address[] public topDepositors */\n    tag_4:\n      callvalue\n      dup1\n      iszero\n      tag_22\n      jumpi\n      revert(0x00, 0x00)\n    tag_22:\n      pop\n      tag_23\n      0x04\n      dup1\n      calldatasize\n      sub\n      dup2\n      add\n      swap1\n      tag_24\n      swap2\n      swap1\n      tag_25\n      jump\t// in\n    tag_24:\n      tag_26\n      jump\t// in\n    tag_23:\n      mload(0x40)\n      tag_27\n      swap2\n      swap1\n      tag_28\n      jump\t// in\n    tag_27:\n      mload(0x40)\n      dup1\n      swap2\n      sub\n      swap1\n      return\n        /* \"contracts/bank.sol\":1104:1419  function withdraw() public {... */\n    tag_5:\n      callvalue\n      dup1\n      iszero\n      tag_29\n      jumpi\n      revert(0x00, 0x00)\n    tag_29:\n      pop\n      tag_30\n      tag_31\n      jump\t// in\n    tag_30:\n      stop\n        /* \"contracts/bank.sol\":3001:3105  function getTopDepositors() public view returns (address[] memory) {... */\n    tag_6:\n      callvalue\n      dup1\n      iszero\n      tag_32\n      jumpi\n      revert(0x00, 0x00)\n    tag_32:\n      pop\n      tag_33\n      tag_34\n      jump\t// in\n    tag_33:\n      mload(0x40)\n      tag_35\n      swap2\n      swap1\n      tag_36\n      jump\t// in\n    tag_35:\n      mload(0x40)\n      dup1\n      swap2\n      sub\n      swap1\n      return\n        /* \"contracts/bank.sol\":821:1015  function deposit() public payable {... */\n    tag_7:\n      tag_37\n      tag_12\n      jump\t// in\n    tag_37:\n      stop\n        /* \"contracts/bank.sol\":339:359  address public admin */\n    tag_8:\n      callvalue\n      dup1\n      iszero\n      tag_38\n      jumpi\n      revert(0x00, 0x00)\n    tag_38:\n      pop\n      tag_39\n      tag_40\n      jump\t// in\n    tag_39:\n      mload(0x40)\n      tag_41\n      swap2\n      swap1\n      tag_28\n      jump\t// in\n    tag_41:\n      mload(0x40)\n      dup1\n      swap2\n      sub\n      swap1\n      return\n        /* \"contracts/bank.sol\":821:1015  function deposit() public payable {... */\n    tag_12:\n        /* \"contracts/bank.sol\":885:886  0 */\n      0x00\n        /* \"contracts/bank.sol\":873:882  msg.value */\n      callvalue\n        /* \"contracts/bank.sol\":873:886  msg.value > 0 */\n      gt\n        /* \"contracts/bank.sol\":865:931  require(msg.value > 0, \"Deposit amount must be greater than zero\") */\n      tag_43\n      jumpi\n      mload(0x40)\n      0x08c379a000000000000000000000000000000000000000000000000000000000\n      dup2\n      mstore\n      0x04\n      add\n      tag_44\n      swap1\n      tag_45\n      jump\t// in\n    tag_44:\n      mload(0x40)\n      dup1\n      swap2\n      sub\n      swap1\n      revert\n    tag_43:\n        /* \"contracts/bank.sol\":965:974  msg.value */\n      callvalue\n        /* \"contracts/bank.sol\":941:949  balances */\n      0x01\n        /* \"contracts/bank.sol\":941:961  balances[msg.sender] */\n      0x00\n        /* \"contracts/bank.sol\":950:960  msg.sender */\n      caller\n        /* \"contracts/bank.sol\":941:961  balances[msg.sender] */\n      0xffffffffffffffffffffffffffffffffffffffff\n      and\n      0xffffffffffffffffffffffffffffffffffffffff\n      and\n      dup2\n      mstore\n      0x20\n      add\n      swap1\n      dup2\n      mstore\n      0x20\n      add\n      0x00\n      keccak256\n      0x00\n        /* \"contracts/bank.sol\":941:974  balances[msg.sender] += msg.value */\n      dup3\n      dup3\n      sload\n      tag_46\n      swap2\n      swap1\n      tag_47\n      jump\t// in\n    tag_46:\n      swap3\n      pop\n      pop\n      dup2\n      swap1\n      sstore\n      pop\n        /* \"contracts/bank.sol\":984:1008  recomputeTopDepositors() */\n      tag_48\n        /* \"contracts/bank.sol\":984:1006  recomputeTopDepositors */\n      tag_14\n        /* \"contracts/bank.sol\":984:1008  recomputeTopDepositors() */\n      jump\t// in\n    tag_48:\n        /* \"contracts/bank.sol\":821:1015  function deposit() public payable {... */\n      jump\t// out\n        /* \"contracts/bank.sol\":1477:2962  function recomputeTopDepositors() internal {... */\n    tag_14:\n        /* \"contracts/bank.sol\":1530:1542  address user */\n      0x00\n        /* \"contracts/bank.sol\":1545:1555  msg.sender */\n      caller\n        /* \"contracts/bank.sol\":1530:1555  address user = msg.sender */\n      swap1\n      pop\n        /* \"contracts/bank.sol\":1565:1581  uint userBalance */\n      0x00\n        /* \"contracts/bank.sol\":1584:1592  balances */\n      0x01\n        /* \"contracts/bank.sol\":1584:1598  balances[user] */\n      0x00\n        /* \"contracts/bank.sol\":1593:1597  user */\n      dup4\n        /* \"contracts/bank.sol\":1584:1598  balances[user] */\n      0xffffffffffffffffffffffffffffffffffffffff\n      and\n      0xffffffffffffffffffffffffffffffffffffffff\n      and\n      dup2\n      mstore\n      0x20\n      add\n      swap1\n      dup2\n      mstore\n      0x20\n      add\n      0x00\n      keccak256\n      sload\n        /* \"contracts/bank.sol\":1565:1598  uint userBalance = balances[user] */\n      swap1\n      pop\n        /* \"contracts/bank.sol\":1608:1619  bool inList */\n      0x00\n        /* \"contracts/bank.sol\":1622:1627  false */\n      0x00\n        /* \"contracts/bank.sol\":1608:1627  bool inList = false */\n      swap1\n      pop\n        /* \"contracts/bank.sol\":1727:1733  uint i */\n      0x00\n        /* \"contracts/bank.sol\":1736:1737  0 */\n      0x00\n        /* \"contracts/bank.sol\":1727:1737  uint i = 0 */\n      swap1\n      pop\n        /* \"contracts/bank.sol\":1722:1893  for (uint i = 0; i < topDepositors.length; i++) {... */\n    tag_50:\n        /* \"contracts/bank.sol\":1743:1756  topDepositors */\n      0x02\n        /* \"contracts/bank.sol\":1743:1763  topDepositors.length */\n      dup1\n      sload\n      swap1\n      pop\n        /* \"contracts/bank.sol\":1739:1740  i */\n      dup2\n        /* \"contracts/bank.sol\":1739:1763  i < topDepositors.length */\n      lt\n        /* \"contracts/bank.sol\":1722:1893  for (uint i = 0; i < topDepositors.length; i++) {... */\n      iszero\n      tag_51\n      jumpi\n        /* \"contracts/bank.sol\":1808:1812  user */\n      dup4\n        /* \"contracts/bank.sol\":1788:1812  topDepositors[i] == user */\n      0xffffffffffffffffffffffffffffffffffffffff\n      and\n        /* \"contracts/bank.sol\":1788:1801  topDepositors */\n      0x02\n        /* \"contracts/bank.sol\":1802:1803  i */\n      dup3\n        /* \"contracts/bank.sol\":1788:1804  topDepositors[i] */\n      dup2\n      sload\n      dup2\n      lt\n      tag_53\n      jumpi\n      tag_54\n      tag_55\n      jump\t// in\n    tag_54:\n    tag_53:\n      swap1\n      0x00\n      mstore\n      keccak256(0x00, 0x20)\n      add\n      0x00\n      swap1\n      sload\n      swap1\n      0x0100\n      exp\n      swap1\n      div\n      0xffffffffffffffffffffffffffffffffffffffff\n      and\n        /* \"contracts/bank.sol\":1788:1812  topDepositors[i] == user */\n      0xffffffffffffffffffffffffffffffffffffffff\n      and\n      sub\n        /* \"contracts/bank.sol\":1784:1883  if (topDepositors[i] == user) {... */\n      tag_57\n      jumpi\n        /* \"contracts/bank.sol\":1841:1845  true */\n      0x01\n        /* \"contracts/bank.sol\":1832:1845  inList = true */\n      swap2\n      pop\n        /* \"contracts/bank.sol\":1863:1868  break */\n      jump(tag_51)\n        /* \"contracts/bank.sol\":1784:1883  if (topDepositors[i] == user) {... */\n    tag_57:\n        /* \"contracts/bank.sol\":1765:1768  i++ */\n      dup1\n      dup1\n      0x01\n      add\n      swap2\n      pop\n      pop\n        /* \"contracts/bank.sol\":1722:1893  for (uint i = 0; i < topDepositors.length; i++) {... */\n      jump(tag_50)\n    tag_51:\n      pop\n        /* \"contracts/bank.sol\":1908:1914  inList */\n      dup1\n        /* \"contracts/bank.sol\":1903:2577  if (!inList) {... */\n      tag_58\n      jumpi\n        /* \"contracts/bank.sol\":505:506  3 */\n      0x03\n        /* \"contracts/bank.sol\":1934:1947  topDepositors */\n      0x02\n        /* \"contracts/bank.sol\":1934:1954  topDepositors.length */\n      dup1\n      sload\n      swap1\n      pop\n        /* \"contracts/bank.sol\":1934:1962  topDepositors.length < TOP_N */\n      lt\n        /* \"contracts/bank.sol\":1930:2567  if (topDepositors.length < TOP_N) {... */\n      iszero\n      tag_59\n      jumpi\n        /* \"contracts/bank.sol\":1982:1995  topDepositors */\n      0x02\n        /* \"contracts/bank.sol\":2001:2005  user */\n      dup4\n        /* \"contracts/bank.sol\":1982:2006  topDepositors.push(user) */\n      swap1\n      dup1\n      0x01\n      dup2\n      sload\n      add\n      dup1\n      dup3\n      sstore\n      dup1\n      swap2\n      pop\n      pop\n      0x01\n      swap1\n      sub\n      swap1\n      0x00\n      mstore\n      keccak256(0x00, 0x20)\n      add\n      0x00\n      swap1\n      swap2\n      swap1\n      swap2\n      swap1\n      swap2\n      0x0100\n      exp\n      dup2\n      sload\n      dup2\n      0xffffffffffffffffffffffffffffffffffffffff\n      mul\n      not\n      and\n      swap1\n      dup4\n      0xffffffffffffffffffffffffffffffffffffffff\n      and\n      mul\n      or\n      swap1\n      sstore\n      pop\n        /* \"contracts/bank.sol\":1930:2567  if (topDepositors.length < TOP_N) {... */\n      jump(tag_61)\n    tag_59:\n        /* \"contracts/bank.sol\":2045:2061  uint lowestIndex */\n      0x00\n        /* \"contracts/bank.sol\":2064:2065  0 */\n      0x00\n        /* \"contracts/bank.sol\":2045:2065  uint lowestIndex = 0 */\n      swap1\n      pop\n        /* \"contracts/bank.sol\":2083:2101  uint lowestBalance */\n      0x00\n        /* \"contracts/bank.sol\":2104:2112  balances */\n      0x01\n        /* \"contracts/bank.sol\":2104:2130  balances[topDepositors[0]] */\n      0x00\n        /* \"contracts/bank.sol\":2113:2126  topDepositors */\n      0x02\n        /* \"contracts/bank.sol\":2127:2128  0 */\n      0x00\n        /* \"contracts/bank.sol\":2113:2129  topDepositors[0] */\n      dup2\n      sload\n      dup2\n      lt\n      tag_62\n      jumpi\n      tag_63\n      tag_55\n      jump\t// in\n    tag_63:\n    tag_62:\n      swap1\n      0x00\n      mstore\n      keccak256(0x00, 0x20)\n      add\n      0x00\n      swap1\n      sload\n      swap1\n      0x0100\n      exp\n      swap1\n      div\n      0xffffffffffffffffffffffffffffffffffffffff\n      and\n        /* \"contracts/bank.sol\":2104:2130  balances[topDepositors[0]] */\n      0xffffffffffffffffffffffffffffffffffffffff\n      and\n      0xffffffffffffffffffffffffffffffffffffffff\n      and\n      dup2\n      mstore\n      0x20\n      add\n      swap1\n      dup2\n      mstore\n      0x20\n      add\n      0x00\n      keccak256\n      sload\n        /* \"contracts/bank.sol\":2083:2130  uint lowestBalance = balances[topDepositors[0]] */\n      swap1\n      pop\n        /* \"contracts/bank.sol\":2153:2159  uint i */\n      0x00\n        /* \"contracts/bank.sol\":2162:2163  1 */\n      0x01\n        /* \"contracts/bank.sol\":2153:2163  uint i = 1 */\n      swap1\n      pop\n        /* \"contracts/bank.sol\":2148:2429  for (uint i = 1; i < topDepositors.length; i++) {... */\n    tag_65:\n        /* \"contracts/bank.sol\":2169:2182  topDepositors */\n      0x02\n        /* \"contracts/bank.sol\":2169:2189  topDepositors.length */\n      dup1\n      sload\n      swap1\n      pop\n        /* \"contracts/bank.sol\":2165:2166  i */\n      dup2\n        /* \"contracts/bank.sol\":2165:2189  i < topDepositors.length */\n      lt\n        /* \"contracts/bank.sol\":2148:2429  for (uint i = 1; i < topDepositors.length; i++) {... */\n      iszero\n      tag_66\n      jumpi\n        /* \"contracts/bank.sol\":2218:2226  uint bal */\n      0x00\n        /* \"contracts/bank.sol\":2229:2237  balances */\n      0x01\n        /* \"contracts/bank.sol\":2229:2255  balances[topDepositors[i]] */\n      0x00\n        /* \"contracts/bank.sol\":2238:2251  topDepositors */\n      0x02\n        /* \"contracts/bank.sol\":2252:2253  i */\n      dup5\n        /* \"contracts/bank.sol\":2238:2254  topDepositors[i] */\n      dup2\n      sload\n      dup2\n      lt\n      tag_68\n      jumpi\n      tag_69\n      tag_55\n      jump\t// in\n    tag_69:\n    tag_68:\n      swap1\n      0x00\n      mstore\n      keccak256(0x00, 0x20)\n      add\n      0x00\n      swap1\n      sload\n      swap1\n      0x0100\n      exp\n      swap1\n      div\n      0xffffffffffffffffffffffffffffffffffffffff\n      and\n        /* \"contracts/bank.sol\":2229:2255  balances[topDepositors[i]] */\n      0xffffffffffffffffffffffffffffffffffffffff\n      and\n      0xffffffffffffffffffffffffffffffffffffffff\n      and\n      dup2\n      mstore\n      0x20\n      add\n      swap1\n      dup2\n      mstore\n      0x20\n      add\n      0x00\n      keccak256\n      sload\n        /* \"contracts/bank.sol\":2218:2255  uint bal = balances[topDepositors[i]] */\n      swap1\n      pop\n        /* \"contracts/bank.sol\":2287:2300  lowestBalance */\n      dup3\n        /* \"contracts/bank.sol\":2281:2284  bal */\n      dup2\n        /* \"contracts/bank.sol\":2281:2300  bal < lowestBalance */\n      lt\n        /* \"contracts/bank.sol\":2277:2411  if (bal < lowestBalance) {... */\n      iszero\n      tag_71\n      jumpi\n        /* \"contracts/bank.sol\":2344:2347  bal */\n      dup1\n        /* \"contracts/bank.sol\":2328:2347  lowestBalance = bal */\n      swap3\n      pop\n        /* \"contracts/bank.sol\":2387:2388  i */\n      dup2\n        /* \"contracts/bank.sol\":2373:2388  lowestIndex = i */\n      swap4\n      pop\n        /* \"contracts/bank.sol\":2277:2411  if (bal < lowestBalance) {... */\n    tag_71:\n        /* \"contracts/bank.sol\":2196:2429  {... */\n      pop\n        /* \"contracts/bank.sol\":2191:2194  i++ */\n      dup1\n      dup1\n      0x01\n      add\n      swap2\n      pop\n      pop\n        /* \"contracts/bank.sol\":2148:2429  for (uint i = 1; i < topDepositors.length; i++) {... */\n      jump(tag_65)\n    tag_66:\n      pop\n        /* \"contracts/bank.sol\":2464:2477  lowestBalance */\n      dup1\n        /* \"contracts/bank.sol\":2450:2461  userBalance */\n      dup5\n        /* \"contracts/bank.sol\":2450:2477  userBalance > lowestBalance */\n      gt\n        /* \"contracts/bank.sol\":2446:2553  if (userBalance > lowestBalance) {... */\n      iszero\n      tag_72\n      jumpi\n        /* \"contracts/bank.sol\":2530:2534  user */\n      dup5\n        /* \"contracts/bank.sol\":2501:2514  topDepositors */\n      0x02\n        /* \"contracts/bank.sol\":2515:2526  lowestIndex */\n      dup4\n        /* \"contracts/bank.sol\":2501:2527  topDepositors[lowestIndex] */\n      dup2\n      sload\n      dup2\n      lt\n      tag_73\n      jumpi\n      tag_74\n      tag_55\n      jump\t// in\n    tag_74:\n    tag_73:\n      swap1\n      0x00\n      mstore\n      keccak256(0x00, 0x20)\n      add\n      0x00\n        /* \"contracts/bank.sol\":2501:2534  topDepositors[lowestIndex] = user */\n      0x0100\n      exp\n      dup2\n      sload\n      dup2\n      0xffffffffffffffffffffffffffffffffffffffff\n      mul\n      not\n      and\n      swap1\n      dup4\n      0xffffffffffffffffffffffffffffffffffffffff\n      and\n      mul\n      or\n      swap1\n      sstore\n      pop\n        /* \"contracts/bank.sol\":2446:2553  if (userBalance > lowestBalance) {... */\n    tag_72:\n        /* \"contracts/bank.sol\":2027:2567  {... */\n      pop\n      pop\n        /* \"contracts/bank.sol\":1930:2567  if (topDepositors.length < TOP_N) {... */\n    tag_61:\n        /* \"contracts/bank.sol\":1903:2577  if (!inList) {... */\n    tag_58:\n        /* \"contracts/bank.sol\":2628:2634  uint i */\n      0x00\n        /* \"contracts/bank.sol\":2637:2638  0 */\n      0x00\n        /* \"contracts/bank.sol\":2628:2638  uint i = 0 */\n      swap1\n      pop\n        /* \"contracts/bank.sol\":2623:2956  for (uint i = 0; i < topDepositors.length; i++) {... */\n    tag_76:\n        /* \"contracts/bank.sol\":2644:2657  topDepositors */\n      0x02\n        /* \"contracts/bank.sol\":2644:2664  topDepositors.length */\n      dup1\n      sload\n      swap1\n      pop\n        /* \"contracts/bank.sol\":2640:2641  i */\n      dup2\n        /* \"contracts/bank.sol\":2640:2664  i < topDepositors.length */\n      lt\n        /* \"contracts/bank.sol\":2623:2956  for (uint i = 0; i < topDepositors.length; i++) {... */\n      iszero\n      tag_77\n      jumpi\n        /* \"contracts/bank.sol\":2690:2696  uint j */\n      0x00\n        /* \"contracts/bank.sol\":2703:2704  1 */\n      0x01\n        /* \"contracts/bank.sol\":2699:2700  i */\n      dup3\n        /* \"contracts/bank.sol\":2699:2704  i + 1 */\n      tag_82\n      swap2\n      swap1\n      tag_47\n      jump\t// in\n    tag_82:\n        /* \"contracts/bank.sol\":2690:2704  uint j = i + 1 */\n      swap1\n      pop\n        /* \"contracts/bank.sol\":2685:2946  for (uint j = i + 1; j < topDepositors.length; j++) {... */\n    tag_79:\n        /* \"contracts/bank.sol\":2710:2723  topDepositors */\n      0x02\n        /* \"contracts/bank.sol\":2710:2730  topDepositors.length */\n      dup1\n      sload\n      swap1\n      pop\n        /* \"contracts/bank.sol\":2706:2707  j */\n      dup2\n        /* \"contracts/bank.sol\":2706:2730  j < topDepositors.length */\n      lt\n        /* \"contracts/bank.sol\":2685:2946  for (uint j = i + 1; j < topDepositors.length; j++) {... */\n      iszero\n      tag_80\n      jumpi\n        /* \"contracts/bank.sol\":2788:2796  balances */\n      0x01\n        /* \"contracts/bank.sol\":2788:2814  balances[topDepositors[i]] */\n      0x00\n        /* \"contracts/bank.sol\":2797:2810  topDepositors */\n      0x02\n        /* \"contracts/bank.sol\":2811:2812  i */\n      dup5\n        /* \"contracts/bank.sol\":2797:2813  topDepositors[i] */\n      dup2\n      sload\n      dup2\n      lt\n      tag_83\n      jumpi\n      tag_84\n      tag_55\n      jump\t// in\n    tag_84:\n    tag_83:\n      swap1\n      0x00\n      mstore\n      keccak256(0x00, 0x20)\n      add\n      0x00\n      swap1\n      sload\n      swap1\n      0x0100\n      exp\n      swap1\n      div\n      0xffffffffffffffffffffffffffffffffffffffff\n      and\n        /* \"contracts/bank.sol\":2788:2814  balances[topDepositors[i]] */\n      0xffffffffffffffffffffffffffffffffffffffff\n      and\n      0xffffffffffffffffffffffffffffffffffffffff\n      and\n      dup2\n      mstore\n      0x20\n      add\n      swap1\n      dup2\n      mstore\n      0x20\n      add\n      0x00\n      keccak256\n      sload\n        /* \"contracts/bank.sol\":2759:2767  balances */\n      0x01\n        /* \"contracts/bank.sol\":2759:2785  balances[topDepositors[j]] */\n      0x00\n        /* \"contracts/bank.sol\":2768:2781  topDepositors */\n      0x02\n        /* \"contracts/bank.sol\":2782:2783  j */\n      dup5\n        /* \"contracts/bank.sol\":2768:2784  topDepositors[j] */\n      dup2\n      sload\n      dup2\n      lt\n      tag_86\n      jumpi\n      tag_87\n      tag_55\n      jump\t// in\n    tag_87:\n    tag_86:\n      swap1\n      0x00\n      mstore\n      keccak256(0x00, 0x20)\n      add\n      0x00\n      swap1\n      sload\n      swap1\n      0x0100\n      exp\n      swap1\n      div\n      0xffffffffffffffffffffffffffffffffffffffff\n      and\n        /* \"contracts/bank.sol\":2759:2785  balances[topDepositors[j]] */\n      0xffffffffffffffffffffffffffffffffffffffff\n      and\n      0xffffffffffffffffffffffffffffffffffffffff\n      and\n      dup2\n      mstore\n      0x20\n      add\n      swap1\n      dup2\n      mstore\n      0x20\n      add\n      0x00\n      keccak256\n      sload\n        /* \"contracts/bank.sol\":2759:2814  balances[topDepositors[j]] > balances[topDepositors[i]] */\n      gt\n        /* \"contracts/bank.sol\":2755:2932  if (balances[topDepositors[j]] > balances[topDepositors[i]]) {... */\n      iszero\n      tag_89\n      jumpi\n        /* \"contracts/bank.sol\":2878:2891  topDepositors */\n      0x02\n        /* \"contracts/bank.sol\":2892:2893  j */\n      dup2\n        /* \"contracts/bank.sol\":2878:2894  topDepositors[j] */\n      dup2\n      sload\n      dup2\n      lt\n      tag_90\n      jumpi\n      tag_91\n      tag_55\n      jump\t// in\n    tag_91:\n    tag_90:\n      swap1\n      0x00\n      mstore\n      keccak256(0x00, 0x20)\n      add\n      0x00\n      swap1\n      sload\n      swap1\n      0x0100\n      exp\n      swap1\n      div\n      0xffffffffffffffffffffffffffffffffffffffff\n      and\n        /* \"contracts/bank.sol\":2896:2909  topDepositors */\n      0x02\n        /* \"contracts/bank.sol\":2910:2911  i */\n      dup4\n        /* \"contracts/bank.sol\":2896:2912  topDepositors[i] */\n      dup2\n      sload\n      dup2\n      lt\n      tag_93\n      jumpi\n      tag_94\n      tag_55\n      jump\t// in\n    tag_94:\n    tag_93:\n      swap1\n      0x00\n      mstore\n      keccak256(0x00, 0x20)\n      add\n      0x00\n      swap1\n      sload\n      swap1\n      0x0100\n      exp\n      swap1\n      div\n      0xffffffffffffffffffffffffffffffffffffffff\n      and\n        /* \"contracts/bank.sol\":2839:2852  topDepositors */\n      0x02\n        /* \"contracts/bank.sol\":2853:2854  i */\n      dup5\n        /* \"contracts/bank.sol\":2839:2855  topDepositors[i] */\n      dup2\n      sload\n      dup2\n      lt\n      tag_96\n      jumpi\n      tag_97\n      tag_55\n      jump\t// in\n    tag_97:\n    tag_96:\n      swap1\n      0x00\n      mstore\n      keccak256(0x00, 0x20)\n      add\n      0x00\n        /* \"contracts/bank.sol\":2857:2870  topDepositors */\n      0x02\n        /* \"contracts/bank.sol\":2871:2872  j */\n      dup6\n        /* \"contracts/bank.sol\":2857:2873  topDepositors[j] */\n      dup2\n      sload\n      dup2\n      lt\n      tag_99\n      jumpi\n      tag_100\n      tag_55\n      jump\t// in\n    tag_100:\n    tag_99:\n      swap1\n      0x00\n      mstore\n      keccak256(0x00, 0x20)\n      add\n      0x00\n        /* \"contracts/bank.sol\":2838:2913  (topDepositors[i], topDepositors[j]) = (topDepositors[j], topDepositors[i]) */\n      dup5\n      swap2\n      swap1\n      0x0100\n      exp\n      dup2\n      sload\n      dup2\n      0xffffffffffffffffffffffffffffffffffffffff\n      mul\n      not\n      and\n      swap1\n      dup4\n      0xffffffffffffffffffffffffffffffffffffffff\n      and\n      mul\n      or\n      swap1\n      sstore\n      pop\n      dup4\n      swap2\n      swap1\n      0x0100\n      exp\n      dup2\n      sload\n      dup2\n      0xffffffffffffffffffffffffffffffffffffffff\n      mul\n      not\n      and\n      swap1\n      dup4\n      0xffffffffffffffffffffffffffffffffffffffff\n      and\n      mul\n      or\n      swap1\n      sstore\n      pop\n      pop\n      pop\n        /* \"contracts/bank.sol\":2755:2932  if (balances[topDepositors[j]] > balances[topDepositors[i]]) {... */\n    tag_89:\n        /* \"contracts/bank.sol\":2732:2735  j++ */\n      dup1\n      dup1\n      0x01\n      add\n      swap2\n      pop\n      pop\n        /* \"contracts/bank.sol\":2685:2946  for (uint j = i + 1; j < topDepositors.length; j++) {... */\n      jump(tag_79)\n    tag_80:\n      pop\n        /* \"contracts/bank.sol\":2666:2669  i++ */\n      dup1\n      dup1\n      0x01\n      add\n      swap2\n      pop\n      pop\n        /* \"contracts/bank.sol\":2623:2956  for (uint i = 0; i < topDepositors.length; i++) {... */\n      jump(tag_76)\n    tag_77:\n      pop\n        /* \"contracts/bank.sol\":1520:2962  {... */\n      pop\n      pop\n      pop\n        /* \"contracts/bank.sol\":1477:2962  function recomputeTopDepositors() internal {... */\n      jump\t// out\n        /* \"contracts/bank.sol\":365:405  mapping(address => uint) public balances */\n    tag_19:\n      mstore(0x20, 0x01)\n      dup1\n      0x00\n      mstore\n      keccak256(0x00, 0x40)\n      0x00\n      swap2\n      pop\n      swap1\n      pop\n      sload\n      dup2\n      jump\t// out\n        /* \"contracts/bank.sol\":447:477  address[] public topDepositors */\n    tag_26:\n      0x02\n      dup2\n      dup2\n      sload\n      dup2\n      lt\n      tag_102\n      jumpi\n      0x00\n      dup1\n      revert\n    tag_102:\n      swap1\n      0x00\n      mstore\n      keccak256(0x00, 0x20)\n      add\n      0x00\n      swap2\n      pop\n      sload\n      swap1\n      0x0100\n      exp\n      swap1\n      div\n      0xffffffffffffffffffffffffffffffffffffffff\n      and\n      dup2\n      jump\t// out\n        /* \"contracts/bank.sol\":1104:1419  function withdraw() public {... */\n    tag_31:\n        /* \"contracts/bank.sol\":1163:1168  admin */\n      0x00\n      0x00\n      swap1\n      sload\n      swap1\n      0x0100\n      exp\n      swap1\n      div\n      0xffffffffffffffffffffffffffffffffffffffff\n      and\n        /* \"contracts/bank.sol\":1149:1168  msg.sender == admin */\n      0xffffffffffffffffffffffffffffffffffffffff\n      and\n        /* \"contracts/bank.sol\":1149:1159  msg.sender */\n      caller\n        /* \"contracts/bank.sol\":1149:1168  msg.sender == admin */\n      0xffffffffffffffffffffffffffffffffffffffff\n      and\n      eq\n        /* \"contracts/bank.sol\":1141:1202  require(msg.sender == admin, \"Only admin can withdraw funds\") */\n      tag_105\n      jumpi\n      mload(0x40)\n      0x08c379a000000000000000000000000000000000000000000000000000000000\n      dup2\n      mstore\n      0x04\n      add\n      tag_106\n      swap1\n      tag_107\n      jump\t// in\n    tag_106:\n      mload(0x40)\n      dup1\n      swap2\n      sub\n      swap1\n      revert\n    tag_105:\n        /* \"contracts/bank.sol\":1212:1223  uint amount */\n      0x00\n        /* \"contracts/bank.sol\":1226:1247  address(this).balance */\n      selfbalance\n        /* \"contracts/bank.sol\":1212:1247  uint amount = address(this).balance */\n      swap1\n      pop\n        /* \"contracts/bank.sol\":1274:1275  0 */\n      0x00\n        /* \"contracts/bank.sol\":1265:1271  amount */\n      dup2\n        /* \"contracts/bank.sol\":1265:1275  amount > 0 */\n      gt\n        /* \"contracts/bank.sol\":1257:1300  require(amount > 0, \"No funds to withdraw\") */\n      tag_108\n      jumpi\n      mload(0x40)\n      0x08c379a000000000000000000000000000000000000000000000000000000000\n      dup2\n      mstore\n      0x04\n      add\n      tag_109\n      swap1\n      tag_110\n      jump\t// in\n    tag_109:\n      mload(0x40)\n      dup1\n      swap2\n      sub\n      swap1\n      revert\n    tag_108:\n        /* \"contracts/bank.sol\":1311:1323  bool success */\n      0x00\n        /* \"contracts/bank.sol\":1337:1342  admin */\n      0x00\n      0x00\n      swap1\n      sload\n      swap1\n      0x0100\n      exp\n      swap1\n      div\n      0xffffffffffffffffffffffffffffffffffffffff\n      and\n        /* \"contracts/bank.sol\":1329:1348  payable(admin).call */\n      0xffffffffffffffffffffffffffffffffffffffff\n      and\n        /* \"contracts/bank.sol\":1356:1362  amount */\n      dup3\n        /* \"contracts/bank.sol\":1329:1367  payable(admin).call{value: amount}(\"\") */\n      mload(0x40)\n      tag_111\n      swap1\n      tag_112\n      jump\t// in\n    tag_111:\n      0x00\n      mload(0x40)\n      dup1\n      dup4\n      sub\n      dup2\n      dup6\n      dup8\n      gas\n      call\n      swap3\n      pop\n      pop\n      pop\n      returndatasize\n      dup1\n      0x00\n      dup2\n      eq\n      tag_115\n      jumpi\n      mload(0x40)\n      swap2\n      pop\n      and(add(returndatasize, 0x3f), not(0x1f))\n      dup3\n      add\n      0x40\n      mstore\n      returndatasize\n      dup3\n      mstore\n      returndatasize\n      0x00\n      0x20\n      dup5\n      add\n      returndatacopy\n      jump(tag_114)\n    tag_115:\n      0x60\n      swap2\n      pop\n    tag_114:\n      pop\n        /* \"contracts/bank.sol\":1310:1367  (bool success, ) = payable(admin).call{value: amount}(\"\") */\n      pop\n      swap1\n      pop\n        /* \"contracts/bank.sol\":1385:1392  success */\n      dup1\n        /* \"contracts/bank.sol\":1377:1412  require(success, \"Transfer failed\") */\n      tag_116\n      jumpi\n      mload(0x40)\n      0x08c379a000000000000000000000000000000000000000000000000000000000\n      dup2\n      mstore\n      0x04\n      add\n      tag_117\n      swap1\n      tag_118\n      jump\t// in\n    tag_117:\n      mload(0x40)\n      dup1\n      swap2\n      sub\n      swap1\n      revert\n    tag_116:\n        /* \"contracts/bank.sol\":1131:1419  {... */\n      pop\n      pop\n        /* \"contracts/bank.sol\":1104:1419  function withdraw() public {... */\n      jump\t// out\n        /* \"contracts/bank.sol\":3001:3105  function getTopDepositors() public view returns (address[] memory) {... */\n    tag_34:\n        /* \"contracts/bank.sol\":3050:3066  address[] memory */\n      0x60\n        /* \"contracts/bank.sol\":3085:3098  topDepositors */\n      0x02\n        /* \"contracts/bank.sol\":3078:3098  return topDepositors */\n      dup1\n      sload\n      dup1\n      0x20\n      mul\n      0x20\n      add\n      mload(0x40)\n      swap1\n      dup2\n      add\n      0x40\n      mstore\n      dup1\n      swap3\n      swap2\n      swap1\n      dup2\n      dup2\n      mstore\n      0x20\n      add\n      dup3\n      dup1\n      sload\n      dup1\n      iszero\n      tag_120\n      jumpi\n      0x20\n      mul\n      dup3\n      add\n      swap2\n      swap1\n      0x00\n      mstore\n      keccak256(0x00, 0x20)\n      swap1\n    tag_121:\n      dup2\n      0x00\n      swap1\n      sload\n      swap1\n      0x0100\n      exp\n      swap1\n      div\n      0xffffffffffffffffffffffffffffffffffffffff\n      and\n      0xffffffffffffffffffffffffffffffffffffffff\n      and\n      dup2\n      mstore\n      0x20\n      add\n      swap1\n      0x01\n      add\n      swap1\n      dup1\n      dup4\n      gt\n      tag_121\n      jumpi\n    tag_120:\n      pop\n      pop\n      pop\n      pop\n      pop\n      swap1\n      pop\n        /* \"contracts/bank.sol\":3001:3105  function getTopDepositors() public view returns (address[] memory) {... */\n      swap1\n      jump\t// out\n        /* \"contracts/bank.sol\":339:359  address public admin */\n    tag_40:\n      0x00\n      0x00\n      swap1\n      sload\n      swap1\n      0x0100\n      exp\n      swap1\n      div\n      0xffffffffffffffffffffffffffffffffffffffff\n      and\n      dup2\n      jump\t// out\n        /* \"#utility.yul\":88:205   */\n    tag_123:\n        /* \"#utility.yul\":197:198   */\n      0x00\n        /* \"#utility.yul\":194:195   */\n      0x00\n        /* \"#utility.yul\":187:199   */\n      revert\n        /* \"#utility.yul\":334:460   */\n    tag_125:\n        /* \"#utility.yul\":371:378   */\n      0x00\n        /* \"#utility.yul\":411:453   */\n      0xffffffffffffffffffffffffffffffffffffffff\n        /* \"#utility.yul\":404:409   */\n      dup3\n        /* \"#utility.yul\":400:454   */\n      and\n        /* \"#utility.yul\":389:454   */\n      swap1\n      pop\n        /* \"#utility.yul\":334:460   */\n      swap2\n      swap1\n      pop\n      jump\t// out\n        /* \"#utility.yul\":466:562   */\n    tag_126:\n        /* \"#utility.yul\":503:510   */\n      0x00\n        /* \"#utility.yul\":532:556   */\n      tag_160\n        /* \"#utility.yul\":550:555   */\n      dup3\n        /* \"#utility.yul\":532:556   */\n      tag_125\n      jump\t// in\n    tag_160:\n        /* \"#utility.yul\":521:556   */\n      swap1\n      pop\n        /* \"#utility.yul\":466:562   */\n      swap2\n      swap1\n      pop\n      jump\t// out\n        /* \"#utility.yul\":568:690   */\n    tag_127:\n        /* \"#utility.yul\":641:665   */\n      tag_162\n        /* \"#utility.yul\":659:664   */\n      dup2\n        /* \"#utility.yul\":641:665   */\n      tag_126\n      jump\t// in\n    tag_162:\n        /* \"#utility.yul\":634:639   */\n      dup2\n        /* \"#utility.yul\":631:666   */\n      eq\n        /* \"#utility.yul\":621:684   */\n      tag_163\n      jumpi\n        /* \"#utility.yul\":680:681   */\n      0x00\n        /* \"#utility.yul\":677:678   */\n      0x00\n        /* \"#utility.yul\":670:682   */\n      revert\n        /* \"#utility.yul\":621:684   */\n    tag_163:\n        /* \"#utility.yul\":568:690   */\n      pop\n      jump\t// out\n        /* \"#utility.yul\":696:835   */\n    tag_128:\n        /* \"#utility.yul\":742:747   */\n      0x00\n        /* \"#utility.yul\":780:786   */\n      dup2\n        /* \"#utility.yul\":767:787   */\n      calldataload\n        /* \"#utility.yul\":758:787   */\n      swap1\n      pop\n        /* \"#utility.yul\":796:829   */\n      tag_165\n        /* \"#utility.yul\":823:828   */\n      dup2\n        /* \"#utility.yul\":796:829   */\n      tag_127\n      jump\t// in\n    tag_165:\n        /* \"#utility.yul\":696:835   */\n      swap3\n      swap2\n      pop\n      pop\n      jump\t// out\n        /* \"#utility.yul\":841:1170   */\n    tag_18:\n        /* \"#utility.yul\":900:906   */\n      0x00\n        /* \"#utility.yul\":949:951   */\n      0x20\n        /* \"#utility.yul\":937:946   */\n      dup3\n        /* \"#utility.yul\":928:935   */\n      dup5\n        /* \"#utility.yul\":924:947   */\n      sub\n        /* \"#utility.yul\":920:952   */\n      slt\n        /* \"#utility.yul\":917:1036   */\n      iszero\n      tag_167\n      jumpi\n        /* \"#utility.yul\":955:1034   */\n      tag_168\n      tag_123\n      jump\t// in\n    tag_168:\n        /* \"#utility.yul\":917:1036   */\n    tag_167:\n        /* \"#utility.yul\":1075:1076   */\n      0x00\n        /* \"#utility.yul\":1100:1153   */\n      tag_169\n        /* \"#utility.yul\":1145:1152   */\n      dup5\n        /* \"#utility.yul\":1136:1142   */\n      dup3\n        /* \"#utility.yul\":1125:1134   */\n      dup6\n        /* \"#utility.yul\":1121:1143   */\n      add\n        /* \"#utility.yul\":1100:1153   */\n      tag_128\n      jump\t// in\n    tag_169:\n        /* \"#utility.yul\":1090:1153   */\n      swap2\n      pop\n        /* \"#utility.yul\":1046:1163   */\n      pop\n        /* \"#utility.yul\":841:1170   */\n      swap3\n      swap2\n      pop\n      pop\n      jump\t// out\n        /* \"#utility.yul\":1176:1253   */\n    tag_129:\n        /* \"#utility.yul\":1213:1220   */\n      0x00\n        /* \"#utility.yul\":1242:1247   */\n      dup2\n        /* \"#utility.yul\":1231:1247   */\n      swap1\n      pop\n        /* \"#utility.yul\":1176:1253   */\n      swap2\n      swap1\n      pop\n      jump\t// out\n        /* \"#utility.yul\":1259:1377   */\n    tag_130:\n        /* \"#utility.yul\":1346:1370   */\n      tag_172\n        /* \"#utility.yul\":1364:1369   */\n      dup2\n        /* \"#utility.yul\":1346:1370   */\n      tag_129\n      jump\t// in\n    tag_172:\n        /* \"#utility.yul\":1341:1344   */\n      dup3\n        /* \"#utility.yul\":1334:1371   */\n      mstore\n        /* \"#utility.yul\":1259:1377   */\n      pop\n      pop\n      jump\t// out\n        /* \"#utility.yul\":1383:1605   */\n    tag_21:\n        /* \"#utility.yul\":1476:1480   */\n      0x00\n        /* \"#utility.yul\":1514:1516   */\n      0x20\n        /* \"#utility.yul\":1503:1512   */\n      dup3\n        /* \"#utility.yul\":1499:1517   */\n      add\n        /* \"#utility.yul\":1491:1517   */\n      swap1\n      pop\n        /* \"#utility.yul\":1527:1598   */\n      tag_174\n        /* \"#utility.yul\":1595:1596   */\n      0x00\n        /* \"#utility.yul\":1584:1593   */\n      dup4\n        /* \"#utility.yul\":1580:1597   */\n      add\n        /* \"#utility.yul\":1571:1577   */\n      dup5\n        /* \"#utility.yul\":1527:1598   */\n      tag_130\n      jump\t// in\n    tag_174:\n        /* \"#utility.yul\":1383:1605   */\n      swap3\n      swap2\n      pop\n      pop\n      jump\t// out\n        /* \"#utility.yul\":1611:1733   */\n    tag_131:\n        /* \"#utility.yul\":1684:1708   */\n      tag_176\n        /* \"#utility.yul\":1702:1707   */\n      dup2\n        /* \"#utility.yul\":1684:1708   */\n      tag_129\n      jump\t// in\n    tag_176:\n        /* \"#utility.yul\":1677:1682   */\n      dup2\n        /* \"#utility.yul\":1674:1709   */\n      eq\n        /* \"#utility.yul\":1664:1727   */\n      tag_177\n      jumpi\n        /* \"#utility.yul\":1723:1724   */\n      0x00\n        /* \"#utility.yul\":1720:1721   */\n      0x00\n        /* \"#utility.yul\":1713:1725   */\n      revert\n        /* \"#utility.yul\":1664:1727   */\n    tag_177:\n        /* \"#utility.yul\":1611:1733   */\n      pop\n      jump\t// out\n        /* \"#utility.yul\":1739:1878   */\n    tag_132:\n        /* \"#utility.yul\":1785:1790   */\n      0x00\n        /* \"#utility.yul\":1823:1829   */\n      dup2\n        /* \"#utility.yul\":1810:1830   */\n      calldataload\n        /* \"#utility.yul\":1801:1830   */\n      swap1\n      pop\n        /* \"#utility.yul\":1839:1872   */\n      tag_179\n        /* \"#utility.yul\":1866:1871   */\n      dup2\n        /* \"#utility.yul\":1839:1872   */\n      tag_131\n      jump\t// in\n    tag_179:\n        /* \"#utility.yul\":1739:1878   */\n      swap3\n      swap2\n      pop\n      pop\n      jump\t// out\n        /* \"#utility.yul\":1884:2213   */\n    tag_25:\n        /* \"#utility.yul\":1943:1949   */\n      0x00\n        /* \"#utility.yul\":1992:1994   */\n      0x20\n        /* \"#utility.yul\":1980:1989   */\n      dup3\n        /* \"#utility.yul\":1971:1978   */\n      dup5\n        /* \"#utility.yul\":1967:1990   */\n      sub\n        /* \"#utility.yul\":1963:1995   */\n      slt\n        /* \"#utility.yul\":1960:2079   */\n      iszero\n      tag_181\n      jumpi\n        /* \"#utility.yul\":1998:2077   */\n      tag_182\n      tag_123\n      jump\t// in\n    tag_182:\n        /* \"#utility.yul\":1960:2079   */\n    tag_181:\n        /* \"#utility.yul\":2118:2119   */\n      0x00\n        /* \"#utility.yul\":2143:2196   */\n      tag_183\n        /* \"#utility.yul\":2188:2195   */\n      dup5\n        /* \"#utility.yul\":2179:2185   */\n      dup3\n        /* \"#utility.yul\":2168:2177   */\n      dup6\n        /* \"#utility.yul\":2164:2186   */\n      add\n        /* \"#utility.yul\":2143:2196   */\n      tag_132\n      jump\t// in\n    tag_183:\n        /* \"#utility.yul\":2133:2196   */\n      swap2\n      pop\n        /* \"#utility.yul\":2089:2206   */\n      pop\n        /* \"#utility.yul\":1884:2213   */\n      swap3\n      swap2\n      pop\n      pop\n      jump\t// out\n        /* \"#utility.yul\":2219:2337   */\n    tag_133:\n        /* \"#utility.yul\":2306:2330   */\n      tag_185\n        /* \"#utility.yul\":2324:2329   */\n      dup2\n        /* \"#utility.yul\":2306:2330   */\n      tag_126\n      jump\t// in\n    tag_185:\n        /* \"#utility.yul\":2301:2304   */\n      dup3\n        /* \"#utility.yul\":2294:2331   */\n      mstore\n        /* \"#utility.yul\":2219:2337   */\n      pop\n      pop\n      jump\t// out\n        /* \"#utility.yul\":2343:2565   */\n    tag_28:\n        /* \"#utility.yul\":2436:2440   */\n      0x00\n        /* \"#utility.yul\":2474:2476   */\n      0x20\n        /* \"#utility.yul\":2463:2472   */\n      dup3\n        /* \"#utility.yul\":2459:2477   */\n      add\n        /* \"#utility.yul\":2451:2477   */\n      swap1\n      pop\n        /* \"#utility.yul\":2487:2558   */\n      tag_187\n        /* \"#utility.yul\":2555:2556   */\n      0x00\n        /* \"#utility.yul\":2544:2553   */\n      dup4\n        /* \"#utility.yul\":2540:2557   */\n      add\n        /* \"#utility.yul\":2531:2537   */\n      dup5\n        /* \"#utility.yul\":2487:2558   */\n      tag_133\n      jump\t// in\n    tag_187:\n        /* \"#utility.yul\":2343:2565   */\n      swap3\n      swap2\n      pop\n      pop\n      jump\t// out\n        /* \"#utility.yul\":2571:2685   */\n    tag_134:\n        /* \"#utility.yul\":2638:2644   */\n      0x00\n        /* \"#utility.yul\":2672:2677   */\n      dup2\n        /* \"#utility.yul\":2666:2678   */\n      mload\n        /* \"#utility.yul\":2656:2678   */\n      swap1\n      pop\n        /* \"#utility.yul\":2571:2685   */\n      swap2\n      swap1\n      pop\n      jump\t// out\n        /* \"#utility.yul\":2691:2875   */\n    tag_135:\n        /* \"#utility.yul\":2790:2801   */\n      0x00\n        /* \"#utility.yul\":2824:2830   */\n      dup3\n        /* \"#utility.yul\":2819:2822   */\n      dup3\n        /* \"#utility.yul\":2812:2831   */\n      mstore\n        /* \"#utility.yul\":2864:2868   */\n      0x20\n        /* \"#utility.yul\":2859:2862   */\n      dup3\n        /* \"#utility.yul\":2855:2869   */\n      add\n        /* \"#utility.yul\":2840:2869   */\n      swap1\n      pop\n        /* \"#utility.yul\":2691:2875   */\n      swap3\n      swap2\n      pop\n      pop\n      jump\t// out\n        /* \"#utility.yul\":2881:3013   */\n    tag_136:\n        /* \"#utility.yul\":2948:2952   */\n      0x00\n        /* \"#utility.yul\":2971:2974   */\n      dup2\n        /* \"#utility.yul\":2963:2974   */\n      swap1\n      pop\n        /* \"#utility.yul\":3001:3005   */\n      0x20\n        /* \"#utility.yul\":2996:2999   */\n      dup3\n        /* \"#utility.yul\":2992:3006   */\n      add\n        /* \"#utility.yul\":2984:3006   */\n      swap1\n      pop\n        /* \"#utility.yul\":2881:3013   */\n      swap2\n      swap1\n      pop\n      jump\t// out\n        /* \"#utility.yul\":3019:3127   */\n    tag_137:\n        /* \"#utility.yul\":3096:3120   */\n      tag_192\n        /* \"#utility.yul\":3114:3119   */\n      dup2\n        /* \"#utility.yul\":3096:3120   */\n      tag_126\n      jump\t// in\n    tag_192:\n        /* \"#utility.yul\":3091:3094   */\n      dup3\n        /* \"#utility.yul\":3084:3121   */\n      mstore\n        /* \"#utility.yul\":3019:3127   */\n      pop\n      pop\n      jump\t// out\n        /* \"#utility.yul\":3133:3312   */\n    tag_138:\n        /* \"#utility.yul\":3202:3212   */\n      0x00\n        /* \"#utility.yul\":3223:3269   */\n      tag_194\n        /* \"#utility.yul\":3265:3268   */\n      dup4\n        /* \"#utility.yul\":3257:3263   */\n      dup4\n        /* \"#utility.yul\":3223:3269   */\n      tag_137\n      jump\t// in\n    tag_194:\n        /* \"#utility.yul\":3301:3305   */\n      0x20\n        /* \"#utility.yul\":3296:3299   */\n      dup4\n        /* \"#utility.yul\":3292:3306   */\n      add\n        /* \"#utility.yul\":3278:3306   */\n      swap1\n      pop\n        /* \"#utility.yul\":3133:3312   */\n      swap3\n      swap2\n      pop\n      pop\n      jump\t// out\n        /* \"#utility.yul\":3318:3431   */\n    tag_139:\n        /* \"#utility.yul\":3388:3392   */\n      0x00\n        /* \"#utility.yul\":3420:3424   */\n      0x20\n        /* \"#utility.yul\":3415:3418   */\n      dup3\n        /* \"#utility.yul\":3411:3425   */\n      add\n        /* \"#utility.yul\":3403:3425   */\n      swap1\n      pop\n        /* \"#utility.yul\":3318:3431   */\n      swap2\n      swap1\n      pop\n      jump\t// out\n        /* \"#utility.yul\":3467:4199   */\n    tag_140:\n        /* \"#utility.yul\":3586:3589   */\n      0x00\n        /* \"#utility.yul\":3615:3669   */\n      tag_197\n        /* \"#utility.yul\":3663:3668   */\n      dup3\n        /* \"#utility.yul\":3615:3669   */\n      tag_134\n      jump\t// in\n    tag_197:\n        /* \"#utility.yul\":3685:3771   */\n      tag_198\n        /* \"#utility.yul\":3764:3770   */\n      dup2\n        /* \"#utility.yul\":3759:3762   */\n      dup6\n        /* \"#utility.yul\":3685:3771   */\n      tag_135\n      jump\t// in\n    tag_198:\n        /* \"#utility.yul\":3678:3771   */\n      swap4\n      pop\n        /* \"#utility.yul\":3795:3851   */\n      tag_199\n        /* \"#utility.yul\":3845:3850   */\n      dup4\n        /* \"#utility.yul\":3795:3851   */\n      tag_136\n      jump\t// in\n    tag_199:\n        /* \"#utility.yul\":3874:3881   */\n      dup1\n        /* \"#utility.yul\":3905:3906   */\n      0x00\n        /* \"#utility.yul\":3890:4174   */\n    tag_200:\n        /* \"#utility.yul\":3915:3921   */\n      dup4\n        /* \"#utility.yul\":3912:3913   */\n      dup2\n        /* \"#utility.yul\":3909:3922   */\n      lt\n        /* \"#utility.yul\":3890:4174   */\n      iszero\n      tag_202\n      jumpi\n        /* \"#utility.yul\":3991:3997   */\n      dup2\n        /* \"#utility.yul\":3985:3998   */\n      mload\n        /* \"#utility.yul\":4018:4081   */\n      tag_203\n        /* \"#utility.yul\":4077:4080   */\n      dup9\n        /* \"#utility.yul\":4062:4075   */\n      dup3\n        /* \"#utility.yul\":4018:4081   */\n      tag_138\n      jump\t// in\n    tag_203:\n        /* \"#utility.yul\":4011:4081   */\n      swap8\n      pop\n        /* \"#utility.yul\":4104:4164   */\n      tag_204\n        /* \"#utility.yul\":4157:4163   */\n      dup4\n        /* \"#utility.yul\":4104:4164   */\n      tag_139\n      jump\t// in\n    tag_204:\n        /* \"#utility.yul\":4094:4164   */\n      swap3\n      pop\n        /* \"#utility.yul\":3950:4174   */\n      pop\n        /* \"#utility.yul\":3937:3938   */\n      0x01\n        /* \"#utility.yul\":3934:3935   */\n      dup2\n        /* \"#utility.yul\":3930:3939   */\n      add\n        /* \"#utility.yul\":3925:3939   */\n      swap1\n      pop\n        /* \"#utility.yul\":3890:4174   */\n      jump(tag_200)\n    tag_202:\n        /* \"#utility.yul\":3894:3908   */\n      pop\n        /* \"#utility.yul\":4190:4193   */\n      dup6\n        /* \"#utility.yul\":4183:4193   */\n      swap4\n      pop\n        /* \"#utility.yul\":3591:4199   */\n      pop\n      pop\n      pop\n        /* \"#utility.yul\":3467:4199   */\n      swap3\n      swap2\n      pop\n      pop\n      jump\t// out\n        /* \"#utility.yul\":4205:4578   */\n    tag_36:\n        /* \"#utility.yul\":4348:4352   */\n      0x00\n        /* \"#utility.yul\":4386:4388   */\n      0x20\n        /* \"#utility.yul\":4375:4384   */\n      dup3\n        /* \"#utility.yul\":4371:4389   */\n      add\n        /* \"#utility.yul\":4363:4389   */\n      swap1\n      pop\n        /* \"#utility.yul\":4435:4444   */\n      dup2\n        /* \"#utility.yul\":4429:4433   */\n      dup2\n        /* \"#utility.yul\":4425:4445   */\n      sub\n        /* \"#utility.yul\":4421:4422   */\n      0x00\n        /* \"#utility.yul\":4410:4419   */\n      dup4\n        /* \"#utility.yul\":4406:4423   */\n      add\n        /* \"#utility.yul\":4399:4446   */\n      mstore\n        /* \"#utility.yul\":4463:4571   */\n      tag_206\n        /* \"#utility.yul\":4566:4570   */\n      dup2\n        /* \"#utility.yul\":4557:4563   */\n      dup5\n        /* \"#utility.yul\":4463:4571   */\n      tag_140\n      jump\t// in\n    tag_206:\n        /* \"#utility.yul\":4455:4571   */\n      swap1\n      pop\n        /* \"#utility.yul\":4205:4578   */\n      swap3\n      swap2\n      pop\n      pop\n      jump\t// out\n        /* \"#utility.yul\":4584:4753   */\n    tag_141:\n        /* \"#utility.yul\":4668:4679   */\n      0x00\n        /* \"#utility.yul\":4702:4708   */\n      dup3\n        /* \"#utility.yul\":4697:4700   */\n      dup3\n        /* \"#utility.yul\":4690:4709   */\n      mstore\n        /* \"#utility.yul\":4742:4746   */\n      0x20\n        /* \"#utility.yul\":4737:4740   */\n      dup3\n        /* \"#utility.yul\":4733:4747   */\n      add\n        /* \"#utility.yul\":4718:4747   */\n      swap1\n      pop\n        /* \"#utility.yul\":4584:4753   */\n      swap3\n      swap2\n      pop\n      pop\n      jump\t// out\n        /* \"#utility.yul\":4759:4986   */\n    tag_142:\n        /* \"#utility.yul\":4899:4933   */\n      0x4465706f73697420616d6f756e74206d75737420626520677265617465722074\n        /* \"#utility.yul\":4895:4896   */\n      0x00\n        /* \"#utility.yul\":4887:4893   */\n      dup3\n        /* \"#utility.yul\":4883:4897   */\n      add\n        /* \"#utility.yul\":4876:4934   */\n      mstore\n        /* \"#utility.yul\":4968:4978   */\n      0x68616e207a65726f000000000000000000000000000000000000000000000000\n        /* \"#utility.yul\":4963:4965   */\n      0x20\n        /* \"#utility.yul\":4955:4961   */\n      dup3\n        /* \"#utility.yul\":4951:4966   */\n      add\n        /* \"#utility.yul\":4944:4979   */\n      mstore\n        /* \"#utility.yul\":4759:4986   */\n      pop\n      jump\t// out\n        /* \"#utility.yul\":4992:5358   */\n    tag_143:\n        /* \"#utility.yul\":5134:5137   */\n      0x00\n        /* \"#utility.yul\":5155:5222   */\n      tag_210\n        /* \"#utility.yul\":5219:5221   */\n      0x28\n        /* \"#utility.yul\":5214:5217   */\n      dup4\n        /* \"#utility.yul\":5155:5222   */\n      tag_141\n      jump\t// in\n    tag_210:\n        /* \"#utility.yul\":5148:5222   */\n      swap2\n      pop\n        /* \"#utility.yul\":5231:5324   */\n      tag_211\n        /* \"#utility.yul\":5320:5323   */\n      dup3\n        /* \"#utility.yul\":5231:5324   */\n      tag_142\n      jump\t// in\n    tag_211:\n        /* \"#utility.yul\":5349:5351   */\n      0x40\n        /* \"#utility.yul\":5344:5347   */\n      dup3\n        /* \"#utility.yul\":5340:5352   */\n      add\n        /* \"#utility.yul\":5333:5352   */\n      swap1\n      pop\n        /* \"#utility.yul\":4992:5358   */\n      swap2\n      swap1\n      pop\n      jump\t// out\n        /* \"#utility.yul\":5364:5783   */\n    tag_45:\n        /* \"#utility.yul\":5530:5534   */\n      0x00\n        /* \"#utility.yul\":5568:5570   */\n      0x20\n        /* \"#utility.yul\":5557:5566   */\n      dup3\n        /* \"#utility.yul\":5553:5571   */\n      add\n        /* \"#utility.yul\":5545:5571   */\n      swap1\n      pop\n        /* \"#utility.yul\":5617:5626   */\n      dup2\n        /* \"#utility.yul\":5611:5615   */\n      dup2\n        /* \"#utility.yul\":5607:5627   */\n      sub\n        /* \"#utility.yul\":5603:5604   */\n      0x00\n        /* \"#utility.yul\":5592:5601   */\n      dup4\n        /* \"#utility.yul\":5588:5605   */\n      add\n        /* \"#utility.yul\":5581:5628   */\n      mstore\n        /* \"#utility.yul\":5645:5776   */\n      tag_213\n        /* \"#utility.yul\":5771:5775   */\n      dup2\n        /* \"#utility.yul\":5645:5776   */\n      tag_143\n      jump\t// in\n    tag_213:\n        /* \"#utility.yul\":5637:5776   */\n      swap1\n      pop\n        /* \"#utility.yul\":5364:5783   */\n      swap2\n      swap1\n      pop\n      jump\t// out\n        /* \"#utility.yul\":5789:5969   */\n    tag_144:\n        /* \"#utility.yul\":5837:5914   */\n      0x4e487b7100000000000000000000000000000000000000000000000000000000\n        /* \"#utility.yul\":5834:5835   */\n      0x00\n        /* \"#utility.yul\":5827:5915   */\n      mstore\n        /* \"#utility.yul\":5934:5938   */\n      0x11\n        /* \"#utility.yul\":5931:5932   */\n      0x04\n        /* \"#utility.yul\":5924:5939   */\n      mstore\n        /* \"#utility.yul\":5958:5962   */\n      0x24\n        /* \"#utility.yul\":5955:5956   */\n      0x00\n        /* \"#utility.yul\":5948:5963   */\n      revert\n        /* \"#utility.yul\":5975:6166   */\n    tag_47:\n        /* \"#utility.yul\":6015:6018   */\n      0x00\n        /* \"#utility.yul\":6034:6054   */\n      tag_216\n        /* \"#utility.yul\":6052:6053   */\n      dup3\n        /* \"#utility.yul\":6034:6054   */\n      tag_129\n      jump\t// in\n    tag_216:\n        /* \"#utility.yul\":6029:6054   */\n      swap2\n      pop\n        /* \"#utility.yul\":6068:6088   */\n      tag_217\n        /* \"#utility.yul\":6086:6087   */\n      dup4\n        /* \"#utility.yul\":6068:6088   */\n      tag_129\n      jump\t// in\n    tag_217:\n        /* \"#utility.yul\":6063:6088   */\n      swap3\n      pop\n        /* \"#utility.yul\":6111:6112   */\n      dup3\n        /* \"#utility.yul\":6108:6109   */\n      dup3\n        /* \"#utility.yul\":6104:6113   */\n      add\n        /* \"#utility.yul\":6097:6113   */\n      swap1\n      pop\n        /* \"#utility.yul\":6132:6135   */\n      dup1\n        /* \"#utility.yul\":6129:6130   */\n      dup3\n        /* \"#utility.yul\":6126:6136   */\n      gt\n        /* \"#utility.yul\":6123:6159   */\n      iszero\n      tag_218\n      jumpi\n        /* \"#utility.yul\":6139:6157   */\n      tag_219\n      tag_144\n      jump\t// in\n    tag_219:\n        /* \"#utility.yul\":6123:6159   */\n    tag_218:\n        /* \"#utility.yul\":5975:6166   */\n      swap3\n      swap2\n      pop\n      pop\n      jump\t// out\n        /* \"#utility.yul\":6172:6352   */\n    tag_55:\n        /* \"#utility.yul\":6220:6297   */\n      0x4e487b7100000000000000000000000000000000000000000000000000000000\n        /* \"#utility.yul\":6217:6218   */\n      0x00\n        /* \"#utility.yul\":6210:6298   */\n      mstore\n        /* \"#utility.yul\":6317:6321   */\n      0x32\n        /* \"#utility.yul\":6314:6315   */\n      0x04\n        /* \"#utility.yul\":6307:6322   */\n      mstore\n        /* \"#utility.yul\":6341:6345   */\n      0x24\n        /* \"#utility.yul\":6338:6339   */\n      0x00\n        /* \"#utility.yul\":6331:6346   */\n      revert\n        /* \"#utility.yul\":6358:6537   */\n    tag_145:\n        /* \"#utility.yul\":6498:6529   */\n      0x4f6e6c792061646d696e2063616e2077697468647261772066756e6473000000\n        /* \"#utility.yul\":6494:6495   */\n      0x00\n        /* \"#utility.yul\":6486:6492   */\n      dup3\n        /* \"#utility.yul\":6482:6496   */\n      add\n        /* \"#utility.yul\":6475:6530   */\n      mstore\n        /* \"#utility.yul\":6358:6537   */\n      pop\n      jump\t// out\n        /* \"#utility.yul\":6543:6909   */\n    tag_146:\n        /* \"#utility.yul\":6685:6688   */\n      0x00\n        /* \"#utility.yul\":6706:6773   */\n      tag_223\n        /* \"#utility.yul\":6770:6772   */\n      0x1d\n        /* \"#utility.yul\":6765:6768   */\n      dup4\n        /* \"#utility.yul\":6706:6773   */\n      tag_141\n      jump\t// in\n    tag_223:\n        /* \"#utility.yul\":6699:6773   */\n      swap2\n      pop\n        /* \"#utility.yul\":6782:6875   */\n      tag_224\n        /* \"#utility.yul\":6871:6874   */\n      dup3\n        /* \"#utility.yul\":6782:6875   */\n      tag_145\n      jump\t// in\n    tag_224:\n        /* \"#utility.yul\":6900:6902   */\n      0x20\n        /* \"#utility.yul\":6895:6898   */\n      dup3\n        /* \"#utility.yul\":6891:6903   */\n      add\n        /* \"#utility.yul\":6884:6903   */\n      swap1\n      pop\n        /* \"#utility.yul\":6543:6909   */\n      swap2\n      swap1\n      pop\n      jump\t// out\n        /* \"#utility.yul\":6915:7334   */\n    tag_107:\n        /* \"#utility.yul\":7081:7085   */\n      0x00\n        /* \"#utility.yul\":7119:7121   */\n      0x20\n        /* \"#utility.yul\":7108:7117   */\n      dup3\n        /* \"#utility.yul\":7104:7122   */\n      add\n        /* \"#utility.yul\":7096:7122   */\n      swap1\n      pop\n        /* \"#utility.yul\":7168:7177   */\n      dup2\n        /* \"#utility.yul\":7162:7166   */\n      dup2\n        /* \"#utility.yul\":7158:7178   */\n      sub\n        /* \"#utility.yul\":7154:7155   */\n      0x00\n        /* \"#utility.yul\":7143:7152   */\n      dup4\n        /* \"#utility.yul\":7139:7156   */\n      add\n        /* \"#utility.yul\":7132:7179   */\n      mstore\n        /* \"#utility.yul\":7196:7327   */\n      tag_226\n        /* \"#utility.yul\":7322:7326   */\n      dup2\n        /* \"#utility.yul\":7196:7327   */\n      tag_146\n      jump\t// in\n    tag_226:\n        /* \"#utility.yul\":7188:7327   */\n      swap1\n      pop\n        /* \"#utility.yul\":6915:7334   */\n      swap2\n      swap1\n      pop\n      jump\t// out\n        /* \"#utility.yul\":7340:7510   */\n    tag_147:\n        /* \"#utility.yul\":7480:7502   */\n      0x4e6f2066756e647320746f207769746864726177000000000000000000000000\n        /* \"#utility.yul\":7476:7477   */\n      0x00\n        /* \"#utility.yul\":7468:7474   */\n      dup3\n        /* \"#utility.yul\":7464:7478   */\n      add\n        /* \"#utility.yul\":7457:7503   */\n      mstore\n        /* \"#utility.yul\":7340:7510   */\n      pop\n      jump\t// out\n        /* \"#utility.yul\":7516:7882   */\n    tag_148:\n        /* \"#utility.yul\":7658:7661   */\n      0x00\n        /* \"#utility.yul\":7679:7746   */\n      tag_229\n        /* \"#utility.yul\":7743:7745   */\n      0x14\n        /* \"#utility.yul\":7738:7741   */\n      dup4\n        /* \"#utility.yul\":7679:7746   */\n      tag_141\n      jump\t// in\n    tag_229:\n        /* \"#utility.yul\":7672:7746   */\n      swap2\n      pop\n        /* \"#utility.yul\":7755:7848   */\n      tag_230\n        /* \"#utility.yul\":7844:7847   */\n      dup3\n        /* \"#utility.yul\":7755:7848   */\n      tag_147\n      jump\t// in\n    tag_230:\n        /* \"#utility.yul\":7873:7875   */\n      0x20\n        /* \"#utility.yul\":7868:7871   */\n      dup3\n        /* \"#utility.yul\":7864:7876   */\n      add\n        /* \"#utility.yul\":7857:7876   */\n      swap1\n      pop\n        /* \"#utility.yul\":7516:7882   */\n      swap2\n      swap1\n      pop\n      jump\t// out\n        /* \"#utility.yul\":7888:8307   */\n    tag_110:\n        /* \"#utility.yul\":8054:8058   */\n      0x00\n        /* \"#utility.yul\":8092:8094   */\n      0x20\n        /* \"#utility.yul\":8081:8090   */\n      dup3\n        /* \"#utility.yul\":8077:8095   */\n      add\n        /* \"#utility.yul\":8069:8095   */\n      swap1\n      pop\n        /* \"#utility.yul\":8141:8150   */\n      dup2\n        /* \"#utility.yul\":8135:8139   */\n      dup2\n        /* \"#utility.yul\":8131:8151   */\n      sub\n        /* \"#utility.yul\":8127:8128   */\n      0x00\n        /* \"#utility.yul\":8116:8125   */\n      dup4\n        /* \"#utility.yul\":8112:8129   */\n      add\n        /* \"#utility.yul\":8105:8152   */\n      mstore\n        /* \"#utility.yul\":8169:8300   */\n      tag_232\n        /* \"#utility.yul\":8295:8299   */\n      dup2\n        /* \"#utility.yul\":8169:8300   */\n      tag_148\n      jump\t// in\n    tag_232:\n        /* \"#utility.yul\":8161:8300   */\n      swap1\n      pop\n        /* \"#utility.yul\":7888:8307   */\n      swap2\n      swap1\n      pop\n      jump\t// out\n        /* \"#utility.yul\":8313:8460   */\n    tag_149:\n        /* \"#utility.yul\":8414:8425   */\n      0x00\n        /* \"#utility.yul\":8451:8454   */\n      dup2\n        /* \"#utility.yul\":8436:8454   */\n      swap1\n      pop\n        /* \"#utility.yul\":8313:8460   */\n      swap3\n      swap2\n      pop\n      pop\n      jump\t// out\n        /* \"#utility.yul\":8466:8580   */\n    tag_150:\n      pop\n      jump\t// out\n        /* \"#utility.yul\":8586:8984   */\n    tag_151:\n        /* \"#utility.yul\":8745:8748   */\n      0x00\n        /* \"#utility.yul\":8766:8849   */\n      tag_236\n        /* \"#utility.yul\":8847:8848   */\n      0x00\n        /* \"#utility.yul\":8842:8845   */\n      dup4\n        /* \"#utility.yul\":8766:8849   */\n      tag_149\n      jump\t// in\n    tag_236:\n        /* \"#utility.yul\":8759:8849   */\n      swap2\n      pop\n        /* \"#utility.yul\":8858:8951   */\n      tag_237\n        /* \"#utility.yul\":8947:8950   */\n      dup3\n        /* \"#utility.yul\":8858:8951   */\n      tag_150\n      jump\t// in\n    tag_237:\n        /* \"#utility.yul\":8976:8977   */\n      0x00\n        /* \"#utility.yul\":8971:8974   */\n      dup3\n        /* \"#utility.yul\":8967:8978   */\n      add\n        /* \"#utility.yul\":8960:8978   */\n      swap1\n      pop\n        /* \"#utility.yul\":8586:8984   */\n      swap2\n      swap1\n      pop\n      jump\t// out\n        /* \"#utility.yul\":8990:9369   */\n    tag_112:\n        /* \"#utility.yul\":9174:9177   */\n      0x00\n        /* \"#utility.yul\":9196:9343   */\n      tag_239\n        /* \"#utility.yul\":9339:9342   */\n      dup3\n        /* \"#utility.yul\":9196:9343   */\n      tag_151\n      jump\t// in\n    tag_239:\n        /* \"#utility.yul\":9189:9343   */\n      swap2\n      pop\n        /* \"#utility.yul\":9360:9363   */\n      dup2\n        /* \"#utility.yul\":9353:9363   */\n      swap1\n      pop\n        /* \"#utility.yul\":8990:9369   */\n      swap2\n      swap1\n      pop\n      jump\t// out\n        /* \"#utility.yul\":9375:9540   */\n    tag_152:\n        /* \"#utility.yul\":9515:9532   */\n      0x5472616e73666572206661696c65640000000000000000000000000000000000\n        /* \"#utility.yul\":9511:9512   */\n      0x00\n        /* \"#utility.yul\":9503:9509   */\n      dup3\n        /* \"#utility.yul\":9499:9513   */\n      add\n        /* \"#utility.yul\":9492:9533   */\n      mstore\n        /* \"#utility.yul\":9375:9540   */\n      pop\n      jump\t// out\n        /* \"#utility.yul\":9546:9912   */\n    tag_153:\n        /* \"#utility.yul\":9688:9691   */\n      0x00\n        /* \"#utility.yul\":9709:9776   */\n      tag_242\n        /* \"#utility.yul\":9773:9775   */\n      0x0f\n        /* \"#utility.yul\":9768:9771   */\n      dup4\n        /* \"#utility.yul\":9709:9776   */\n      tag_141\n      jump\t// in\n    tag_242:\n        /* \"#utility.yul\":9702:9776   */\n      swap2\n      pop\n        /* \"#utility.yul\":9785:9878   */\n      tag_243\n        /* \"#utility.yul\":9874:9877   */\n      dup3\n        /* \"#utility.yul\":9785:9878   */\n      tag_152\n      jump\t// in\n    tag_243:\n        /* \"#utility.yul\":9903:9905   */\n      0x20\n        /* \"#utility.yul\":9898:9901   */\n      dup3\n        /* \"#utility.yul\":9894:9906   */\n      add\n        /* \"#utility.yul\":9887:9906   */\n      swap1\n      pop\n        /* \"#utility.yul\":9546:9912   */\n      swap2\n      swap1\n      pop\n      jump\t// out\n        /* \"#utility.yul\":9918:10337   */\n    tag_118:\n        /* \"#utility.yul\":10084:10088   */\n      0x00\n        /* \"#utility.yul\":10122:10124   */\n      0x20\n        /* \"#utility.yul\":10111:10120   */\n      dup3\n        /* \"#utility.yul\":10107:10125   */\n      add\n        /* \"#utility.yul\":10099:10125   */\n      swap1\n      pop\n        /* \"#utility.yul\":10171:10180   */\n      dup2\n        /* \"#utility.yul\":10165:10169   */\n      dup2\n        /* \"#utility.yul\":10161:10181   */\n      sub\n        /* \"#utility.yul\":10157:10158   */\n      0x00\n        /* \"#utility.yul\":10146:10155   */\n      dup4\n        /* \"#utility.yul\":10142:10159   */\n      add\n        /* \"#utility.yul\":10135:10182   */\n      mstore\n        /* \"#utility.yul\":10199:10330   */\n      tag_245\n        /* \"#utility.yul\":10325:10329   */\n      dup2\n        /* \"#utility.yul\":10199:10330   */\n      tag_153\n      jump\t// in\n    tag_245:\n        /* \"#utility.yul\":10191:10330   */\n      swap1\n      pop\n        /* \"#utility.yul\":9918:10337   */\n      swap2\n      swap1\n      pop\n      jump\t// out\n\n    auxdata: 0xa26469706673582212200af53f058f11f925810366b8b39dc0cdb9fe3cbb82fd49d6b31117952a1ef5c164736f6c634300081f0033\n}\n",
				"bytecode": {
					"linkReferences": {},
					"object": "6080604052348015600e575f5ffd5b50335f5f6101000a81548173ffffffffffffffffffffffffffffffffffffffff021916908373ffffffffffffffffffffffffffffffffffffffff160217905550610eed8061005b5f395ff3fe608060405260043610610058575f3560e01c806327e235e31461007357806330861078146100af5780633ccfd60b146100eb57806381454f7114610101578063d0e30db01461012b578063f851a440146101355761006f565b3661006f5761006561015f565b61006d6101fe565b005b5f5ffd5b34801561007e575f5ffd5b5061009960048036038101906100949190610a63565b610766565b6040516100a69190610aa6565b60405180910390f35b3480156100ba575f5ffd5b506100d560048036038101906100d09190610ae9565b61077b565b6040516100e29190610b23565b60405180910390f35b3480156100f6575f5ffd5b506100ff6107b6565b005b34801561010c575f5ffd5b50610115610956565b6040516101229190610bf3565b60405180910390f35b61013361015f565b005b348015610140575f5ffd5b506101496109e1565b6040516101569190610b23565b60405180910390f35b5f34116101a1576040517f08c379a000000000000000000000000000000000000000000000000000000000815260040161019890610c93565b60405180910390fd5b3460015f3373ffffffffffffffffffffffffffffffffffffffff1673ffffffffffffffffffffffffffffffffffffffff1681526020019081526020015f205f8282546101ed9190610cde565b925050819055506101fc6101fe565b565b5f3390505f60015f8373ffffffffffffffffffffffffffffffffffffffff1673ffffffffffffffffffffffffffffffffffffffff1681526020019081526020015f205490505f5f90505f5f90505b6002805490508110156102dd578373ffffffffffffffffffffffffffffffffffffffff166002828154811061028457610283610d11565b5b905f5260205f20015f9054906101000a900473ffffffffffffffffffffffffffffffffffffffff1673ffffffffffffffffffffffffffffffffffffffff16036102d057600191506102dd565b808060010191505061024c565b50806104ea576003600280549050101561035657600283908060018154018082558091505060019003905f5260205f20015f9091909190916101000a81548173ffffffffffffffffffffffffffffffffffffffff021916908373ffffffffffffffffffffffffffffffffffffffff1602179055506104e9565b5f5f90505f60015f60025f8154811061037257610371610d11565b5b905f5260205f20015f9054906101000a900473ffffffffffffffffffffffffffffffffffffffff1673ffffffffffffffffffffffffffffffffffffffff1673ffffffffffffffffffffffffffffffffffffffff1681526020019081526020015f205490505f600190505b600280549050811015610482575f60015f6002848154811061040157610400610d11565b5b905f5260205f20015f9054906101000a900473ffffffffffffffffffffffffffffffffffffffff1673ffffffffffffffffffffffffffffffffffffffff1673ffffffffffffffffffffffffffffffffffffffff1681526020019081526020015f2054905082811015610474578092508193505b5080806001019150506103dc565b50808411156104e65784600283815481106104a05761049f610d11565b5b905f5260205f20015f6101000a81548173ffffffffffffffffffffffffffffffffffffffff021916908373ffffffffffffffffffffffffffffffffffffffff1602179055505b50505b5b5f5f90505b600280549050811015610760575f60018261050a9190610cde565b90505b6002805490508110156107525760015f6002848154811061053157610530610d11565b5b905f5260205f20015f9054906101000a900473ffffffffffffffffffffffffffffffffffffffff1673ffffffffffffffffffffffffffffffffffffffff1673ffffffffffffffffffffffffffffffffffffffff1681526020019081526020015f205460015f600284815481106105aa576105a9610d11565b5b905f5260205f20015f9054906101000a900473ffffffffffffffffffffffffffffffffffffffff1673ffffffffffffffffffffffffffffffffffffffff1673ffffffffffffffffffffffffffffffffffffffff1681526020019081526020015f20541115610745576002818154811061062657610625610d11565b5b905f5260205f20015f9054906101000a900473ffffffffffffffffffffffffffffffffffffffff166002838154811061066257610661610d11565b5b905f5260205f20015f9054906101000a900473ffffffffffffffffffffffffffffffffffffffff166002848154811061069e5761069d610d11565b5b905f5260205f20015f600285815481106106bb576106ba610d11565b5b905f5260205f20015f8491906101000a81548173ffffffffffffffffffffffffffffffffffffffff021916908373ffffffffffffffffffffffffffffffffffffffff1602179055508391906101000a81548173ffffffffffffffffffffffffffffffffffffffff021916908373ffffffffffffffffffffffffffffffffffffffff16021790555050505b808060010191505061050d565b5080806001019150506104ef565b50505050565b6001602052805f5260405f205f915090505481565b6002818154811061078a575f80fd5b905f5260205f20015f915054906101000a900473ffffffffffffffffffffffffffffffffffffffff1681565b5f5f9054906101000a900473ffffffffffffffffffffffffffffffffffffffff1673ffffffffffffffffffffffffffffffffffffffff163373ffffffffffffffffffffffffffffffffffffffff1614610844576040517f08c379a000000000000000000000000000000000000000000000000000000000815260040161083b90610d88565b60405180910390fd5b5f4790505f811161088a576040517f08c379a000000000000000000000000000000000000000000000000000000000815260040161088190610df0565b60405180910390fd5b5f5f5f9054906101000a900473ffffffffffffffffffffffffffffffffffffffff1673ffffffffffffffffffffffffffffffffffffffff16826040516108cf90610e3b565b5f6040518083038185875af1925050503d805f8114610909576040519150601f19603f3d011682016040523d82523d5f602084013e61090e565b606091505b5050905080610952576040517f08c379a000000000000000000000000000000000000000000000000000000000815260040161094990610e99565b60405180910390fd5b5050565b606060028054806020026020016040519081016040528092919081815260200182805480156109d757602002820191905f5260205f20905b815f9054906101000a900473ffffffffffffffffffffffffffffffffffffffff1673ffffffffffffffffffffffffffffffffffffffff168152602001906001019080831161098e575b5050505050905090565b5f5f9054906101000a900473ffffffffffffffffffffffffffffffffffffffff1681565b5f5ffd5b5f73ffffffffffffffffffffffffffffffffffffffff82169050919050565b5f610a3282610a09565b9050919050565b610a4281610a28565b8114610a4c575f5ffd5b50565b5f81359050610a5d81610a39565b92915050565b5f60208284031215610a7857610a77610a05565b5b5f610a8584828501610a4f565b91505092915050565b5f819050919050565b610aa081610a8e565b82525050565b5f602082019050610ab95f830184610a97565b92915050565b610ac881610a8e565b8114610ad2575f5ffd5b50565b5f81359050610ae381610abf565b92915050565b5f60208284031215610afe57610afd610a05565b5b5f610b0b84828501610ad5565b91505092915050565b610b1d81610a28565b82525050565b5f602082019050610b365f830184610b14565b92915050565b5f81519050919050565b5f82825260208201905092915050565b5f819050602082019050919050565b610b6e81610a28565b82525050565b5f610b7f8383610b65565b60208301905092915050565b5f602082019050919050565b5f610ba182610b3c565b610bab8185610b46565b9350610bb683610b56565b805f5b83811015610be6578151610bcd8882610b74565b9750610bd883610b8b565b925050600181019050610bb9565b5085935050505092915050565b5f6020820190508181035f830152610c0b8184610b97565b905092915050565b5f82825260208201905092915050565b7f4465706f73697420616d6f756e74206d757374206265206772656174657220745f8201527f68616e207a65726f000000000000000000000000000000000000000000000000602082015250565b5f610c7d602883610c13565b9150610c8882610c23565b604082019050919050565b5f6020820190508181035f830152610caa81610c71565b9050919050565b7f4e487b71000000000000000000000000000000000000000000000000000000005f52601160045260245ffd5b5f610ce882610a8e565b9150610cf383610a8e565b9250828201905080821115610d0b57610d0a610cb1565b5b92915050565b7f4e487b71000000000000000000000000000000000000000000000000000000005f52603260045260245ffd5b7f4f6e6c792061646d696e2063616e2077697468647261772066756e64730000005f82015250565b5f610d72601d83610c13565b9150610d7d82610d3e565b602082019050919050565b5f6020820190508181035f830152610d9f81610d66565b9050919050565b7f4e6f2066756e647320746f2077697468647261770000000000000000000000005f82015250565b5f610dda601483610c13565b9150610de582610da6565b602082019050919050565b5f6020820190508181035f830152610e0781610dce565b9050919050565b5f81905092915050565b50565b5f610e265f83610e0e565b9150610e3182610e18565b5f82019050919050565b5f610e4582610e1b565b9150819050919050565b7f5472616e73666572206661696c656400000000000000000000000000000000005f82015250565b5f610e83600f83610c13565b9150610e8e82610e4f565b602082019050919050565b5f6020820190508181035f830152610eb081610e77565b905091905056fea26469706673582212200af53f058f11f925810366b8b39dc0cdb9fe3cbb82fd49d6b31117952a1ef5c164736f6c634300081f0033",
					"opcodes": "PUSH1 0x80 PUSH1 0x40 MSTORE CALLVALUE DUP1 ISZERO PUSH1 0xE JUMPI PUSH0 PUSH0 REVERT JUMPDEST POP CALLER PUSH0 PUSH0 PUSH2 0x100 EXP DUP2 SLOAD DUP2 PUSH20 0xFFFFFFFFFFFFFFFFFFFFFFFFFFFFFFFFFFFFFFFF MUL NOT AND SWAP1 DUP4 PUSH20 0xFFFFFFFFFFFFFFFFFFFFFFFFFFFFFFFFFFFFFFFF AND MUL OR SWAP1 SSTORE POP PUSH2 0xEED DUP1 PUSH2 0x5B PUSH0 CODECOPY PUSH0 RETURN INVALID PUSH1 0x80 PUSH1 0x40 MSTORE PUSH1 0x4 CALLDATASIZE LT PUSH2 0x58 JUMPI PUSH0 CALLDATALOAD PUSH1 0xE0 SHR DUP1 PUSH4 0x27E235E3 EQ PUSH2 0x73 JUMPI DUP1 PUSH4 0x30861078 EQ PUSH2 0xAF JUMPI DUP1 PUSH4 0x3CCFD60B EQ PUSH2 0xEB JUMPI DUP1 PUSH4 0x81454F71 EQ PUSH2 0x101 JUMPI DUP1 PUSH4 0xD0E30DB0 EQ PUSH2 0x12B JUMPI DUP1 PUSH4 0xF851A440 EQ PUSH2 0x135 JUMPI PUSH2 0x6F JUMP JUMPDEST CALLDATASIZE PUSH2 0x6F JUMPI PUSH2 0x65 PUSH2 0x15F JUMP JUMPDEST PUSH2 0x6D PUSH2 0x1FE JUMP JUMPDEST STOP JUMPDEST PUSH0 PUSH0 REVERT JUMPDEST CALLVALUE DUP1 ISZERO PUSH2 0x7E JUMPI PUSH0 PUSH0 REVERT JUMPDEST POP PUSH2 0x99 PUSH1 0x4 DUP1 CALLDATASIZE SUB DUP2 ADD SWAP1 PUSH2 0x94 SWAP2 SWAP1 PUSH2 0xA63 JUMP JUMPDEST PUSH2 0x766 JUMP JUMPDEST PUSH1 0x40 MLOAD PUSH2 0xA6 SWAP2 SWAP1 PUSH2 0xAA6 JUMP JUMPDEST PUSH1 0x40 MLOAD DUP1 SWAP2 SUB SWAP1 RETURN JUMPDEST CALLVALUE DUP1 ISZERO PUSH2 0xBA JUMPI PUSH0 PUSH0 REVERT JUMPDEST POP PUSH2 0xD5 PUSH1 0x4 DUP1 CALLDATASIZE SUB DUP2 ADD SWAP1 PUSH2 0xD0 SWAP2 SWAP1 PUSH2 0xAE9 JUMP JUMPDEST PUSH2 0x77B JUMP JUMPDEST PUSH1 0x40 MLOAD PUSH2 0xE2 SWAP2 SWAP1 PUSH2 0xB23 JUMP JUMPDEST PUSH1 0x40 MLOAD DUP1 SWAP2 SUB SWAP1 RETURN JUMPDEST CALLVALUE DUP1 ISZERO PUSH2 0xF6 JUMPI PUSH0 PUSH0 REVERT JUMPDEST POP PUSH2 0xFF PUSH2 0x7B6 JUMP JUMPDEST STOP JUMPDEST CALLVALUE DUP1 ISZERO PUSH2 0x10C JUMPI PUSH0 PUSH0 REVERT JUMPDEST POP PUSH2 0x115 PUSH2 0x956 JUMP JUMPDEST PUSH1 0x40 MLOAD PUSH2 0x122 SWAP2 SWAP1 PUSH2 0xBF3 JUMP JUMPDEST PUSH1 0x40 MLOAD DUP1 SWAP2 SUB SWAP1 RETURN JUMPDEST PUSH2 0x133 PUSH2 0x15F JUMP JUMPDEST STOP JUMPDEST CALLVALUE DUP1 ISZERO PUSH2 0x140 JUMPI PUSH0 PUSH0 REVERT JUMPDEST POP PUSH2 0x149 PUSH2 0x9E1 JUMP JUMPDEST PUSH1 0x40 MLOAD PUSH2 0x156 SWAP2 SWAP1 PUSH2 0xB23 JUMP JUMPDEST PUSH1 0x40 MLOAD DUP1 SWAP2 SUB SWAP1 RETURN JUMPDEST PUSH0 CALLVALUE GT PUSH2 0x1A1 JUMPI PUSH1 0x40 MLOAD PUSH32 0x8C379A000000000000000000000000000000000000000000000000000000000 DUP2 MSTORE PUSH1 0x4 ADD PUSH2 0x198 SWAP1 PUSH2 0xC93 JUMP JUMPDEST PUSH1 0x40 MLOAD DUP1 SWAP2 SUB SWAP1 REVERT JUMPDEST CALLVALUE PUSH1 0x1 PUSH0 CALLER PUSH20 0xFFFFFFFFFFFFFFFFFFFFFFFFFFFFFFFFFFFFFFFF AND PUSH20 0xFFFFFFFFFFFFFFFFFFFFFFFFFFFFFFFFFFFFFFFF AND DUP2 MSTORE PUSH1 0x20 ADD SWAP1 DUP2 MSTORE PUSH1 0x20 ADD PUSH0 KECCAK256 PUSH0 DUP3 DUP3 SLOAD PUSH2 0x1ED SWAP2 SWAP1 PUSH2 0xCDE JUMP JUMPDEST SWAP3 POP POP DUP2 SWAP1 SSTORE POP PUSH2 0x1FC PUSH2 0x1FE JUMP JUMPDEST JUMP JUMPDEST PUSH0 CALLER SWAP1 POP PUSH0 PUSH1 0x1 PUSH0 DUP4 PUSH20 0xFFFFFFFFFFFFFFFFFFFFFFFFFFFFFFFFFFFFFFFF AND PUSH20 0xFFFFFFFFFFFFFFFFFFFFFFFFFFFFFFFFFFFFFFFF AND DUP2 MSTORE PUSH1 0x20 ADD SWAP1 DUP2 MSTORE PUSH1 0x20 ADD PUSH0 KECCAK256 SLOAD SWAP1 POP PUSH0 PUSH0 SWAP1 POP PUSH0 PUSH0 SWAP1 POP JUMPDEST PUSH1 0x2 DUP1 SLOAD SWAP1 POP DUP2 LT ISZERO PUSH2 0x2DD JUMPI DUP4 PUSH20 0xFFFFFFFFFFFFFFFFFFFFFFFFFFFFFFFFFFFFFFFF AND PUSH1 0x2 DUP3 DUP2 SLOAD DUP2 LT PUSH2 0x284 JUMPI PUSH2 0x283 PUSH2 0xD11 JUMP JUMPDEST JUMPDEST SWAP1 PUSH0 MSTORE PUSH1 0x20 PUSH0 KECCAK256 ADD PUSH0 SWAP1 SLOAD SWAP1 PUSH2 0x100 EXP SWAP1 DIV PUSH20 0xFFFFFFFFFFFFFFFFFFFFFFFFFFFFFFFFFFFFFFFF AND PUSH20 0xFFFFFFFFFFFFFFFFFFFFFFFFFFFFFFFFFFFFFFFF AND SUB PUSH2 0x2D0 JUMPI PUSH1 0x1 SWAP2 POP PUSH2 0x2DD JUMP JUMPDEST DUP1 DUP1 PUSH1 0x1 ADD SWAP2 POP POP PUSH2 0x24C JUMP JUMPDEST POP DUP1 PUSH2 0x4EA JUMPI PUSH1 0x3 PUSH1 0x2 DUP1 SLOAD SWAP1 POP LT ISZERO PUSH2 0x356 JUMPI PUSH1 0x2 DUP4 SWAP1 DUP1 PUSH1 0x1 DUP2 SLOAD ADD DUP1 DUP3 SSTORE DUP1 SWAP2 POP POP PUSH1 0x1 SWAP1 SUB SWAP1 PUSH0 MSTORE PUSH1 0x20 PUSH0 KECCAK256 ADD PUSH0 SWAP1 SWAP2 SWAP1 SWAP2 SWAP1 SWAP2 PUSH2 0x100 EXP DUP2 SLOAD DUP2 PUSH20 0xFFFFFFFFFFFFFFFFFFFFFFFFFFFFFFFFFFFFFFFF MUL NOT AND SWAP1 DUP4 PUSH20 0xFFFFFFFFFFFFFFFFFFFFFFFFFFFFFFFFFFFFFFFF AND MUL OR SWAP1 SSTORE POP PUSH2 0x4E9 JUMP JUMPDEST PUSH0 PUSH0 SWAP1 POP PUSH0 PUSH1 0x1 PUSH0 PUSH1 0x2 PUSH0 DUP2 SLOAD DUP2 LT PUSH2 0x372 JUMPI PUSH2 0x371 PUSH2 0xD11 JUMP JUMPDEST JUMPDEST SWAP1 PUSH0 MSTORE PUSH1 0x20 PUSH0 KECCAK256 ADD PUSH0 SWAP1 SLOAD SWAP1 PUSH2 0x100 EXP SWAP1 DIV PUSH20 0xFFFFFFFFFFFFFFFFFFFFFFFFFFFFFFFFFFFFFFFF AND PUSH20 0xFFFFFFFFFFFFFFFFFFFFFFFFFFFFFFFFFFFFFFFF AND PUSH20 0xFFFFFFFFFFFFFFFFFFFFFFFFFFFFFFFFFFFFFFFF AND DUP2 MSTORE PUSH1 0x20 ADD SWAP1 DUP2 MSTORE PUSH1 0x20 ADD PUSH0 KECCAK256 SLOAD SWAP1 POP PUSH0 PUSH1 0x1 SWAP1 POP JUMPDEST PUSH1 0x2 DUP1 SLOAD SWAP1 POP DUP2 LT ISZERO PUSH2 0x482 JUMPI PUSH0 PUSH1 0x1 PUSH0 PUSH1 0x2 DUP5 DUP2 SLOAD DUP2 LT PUSH2 0x401 JUMPI PUSH2 0x400 PUSH2 0xD11 JUMP JUMPDEST JUMPDEST SWAP1 PUSH0 MSTORE PUSH1 0x20 PUSH0 KECCAK256 ADD PUSH0 SWAP1 SLOAD SWAP1 PUSH2 0x100 EXP SWAP1 DIV PUSH20 0xFFFFFFFFFFFFFFFFFFFFFFFFFFFFFFFFFFFFFFFF AND PUSH20 0xFFFFFFFFFFFFFFFFFFFFFFFFFFFFFFFFFFFFFFFF AND PUSH20 0xFFFFFFFFFFFFFFFFFFFFFFFFFFFFFFFFFFFFFFFF AND DUP2 MSTORE PUSH1 0x20 ADD SWAP1 DUP2 MSTORE PUSH1 0x20 ADD PUSH0 KECCAK256 SLOAD SWAP1 POP DUP3 DUP2 LT ISZERO PUSH2 0x474 JUMPI DUP1 SWAP3 POP DUP2 SWAP4 POP JUMPDEST POP DUP1 DUP1 PUSH1 0x1 ADD SWAP2 POP POP PUSH2 0x3DC JUMP JUMPDEST POP DUP1 DUP5 GT ISZERO PUSH2 0x4E6 JUMPI DUP5 PUSH1 0x2 DUP4 DUP2 SLOAD DUP2 LT PUSH2 0x4A0 JUMPI PUSH2 0x49F PUSH2 0xD11 JUMP JUMPDEST JUMPDEST SWAP1 PUSH0 MSTORE PUSH1 0x20 PUSH0 KECCAK256 ADD PUSH0 PUSH2 0x100 EXP DUP2 SLOAD DUP2 PUSH20 0xFFFFFFFFFFFFFFFFFFFFFFFFFFFFFFFFFFFFFFFF MUL NOT AND SWAP1 DUP4 PUSH20 0xFFFFFFFFFFFFFFFFFFFFFFFFFFFFFFFFFFFFFFFF AND MUL OR SWAP1 SSTORE POP JUMPDEST POP POP JUMPDEST JUMPDEST PUSH0 PUSH0 SWAP1 POP JUMPDEST PUSH1 0x2 DUP1 SLOAD SWAP1 POP DUP2 LT ISZERO PUSH2 0x760 JUMPI PUSH0 PUSH1 0x1 DUP3 PUSH2 0x50A SWAP2 SWAP1 PUSH2 0xCDE JUMP JUMPDEST SWAP1 POP JUMPDEST PUSH1 0x2 DUP1 SLOAD SWAP1 POP DUP2 LT ISZERO PUSH2 0x752 JUMPI PUSH1 0x1 PUSH0 PUSH1 0x2 DUP5 DUP2 SLOAD DUP2 LT PUSH2 0x531 JUMPI PUSH2 0x530 PUSH2 0xD11 JUMP JUMPDEST JUMPDEST SWAP1 PUSH0 MSTORE PUSH1 0x20 PUSH0 KECCAK256 ADD PUSH0 SWAP1 SLOAD SWAP1 PUSH2 0x100 EXP SWAP1 DIV PUSH20 0xFFFFFFFFFFFFFFFFFFFFFFFFFFFFFFFFFFFFFFFF AND PUSH20 0xFFFFFFFFFFFFFFFFFFFFFFFFFFFFFFFFFFFFFFFF AND PUSH20 0xFFFFFFFFFFFFFFFFFFFFFFFFFFFFFFFFFFFFFFFF AND DUP2 MSTORE PUSH1 0x20 ADD SWAP1 DUP2 MSTORE PUSH1 0x20 ADD PUSH0 KECCAK256 SLOAD PUSH1 0x1 PUSH0 PUSH1 0x2 DUP5 DUP2 SLOAD DUP2 LT PUSH2 0x5AA JUMPI PUSH2 0x5A9 PUSH2 0xD11 JUMP JUMPDEST JUMPDEST SWAP1 PUSH0 MSTORE PUSH1 0x20 PUSH0 KECCAK256 ADD PUSH0 SWAP1 SLOAD SWAP1 PUSH2 0x100 EXP SWAP1 DIV PUSH20 0xFFFFFFFFFFFFFFFFFFFFFFFFFFFFFFFFFFFFFFFF AND PUSH20 0xFFFFFFFFFFFFFFFFFFFFFFFFFFFFFFFFFFFFFFFF AND PUSH20 0xFFFFFFFFFFFFFFFFFFFFFFFFFFFFFFFFFFFFFFFF AND DUP2 MSTORE PUSH1 0x20 ADD SWAP1 DUP2 MSTORE PUSH1 0x20 ADD PUSH0 KECCAK256 SLOAD GT ISZERO PUSH2 0x745 JUMPI PUSH1 0x2 DUP2 DUP2 SLOAD DUP2 LT PUSH2 0x626 JUMPI PUSH2 0x625 PUSH2 0xD11 JUMP JUMPDEST JUMPDEST SWAP1 PUSH0 MSTORE PUSH1 0x20 PUSH0 KECCAK256 ADD PUSH0 SWAP1 SLOAD SWAP1 PUSH2 0x100 EXP SWAP1 DIV PUSH20 0xFFFFFFFFFFFFFFFFFFFFFFFFFFFFFFFFFFFFFFFF AND PUSH1 0x2 DUP4 DUP2 SLOAD DUP2 LT PUSH2 0x662 JUMPI PUSH2 0x661 PUSH2 0xD11 JUMP JUMPDEST JUMPDEST SWAP1 PUSH0 MSTORE PUSH1 0x20 PUSH0 KECCAK256 ADD PUSH0 SWAP1 SLOAD SWAP1 PUSH2 0x100 EXP SWAP1 DIV PUSH20 0xFFFFFFFFFFFFFFFFFFFFFFFFFFFFFFFFFFFFFFFF AND PUSH1 0x2 DUP5 DUP2 SLOAD DUP2 LT PUSH2 0x69E JUMPI PUSH2 0x69D PUSH2 0xD11 JUMP JUMPDEST JUMPDEST SWAP1 PUSH0 MSTORE PUSH1 0x20 PUSH0 KECCAK256 ADD PUSH0 PUSH1 0x2 DUP6 DUP2 SLOAD DUP2 LT PUSH2 0x6BB JUMPI PUSH2 0x6BA PUSH2 0xD11 JUMP JUMPDEST JUMPDEST SWAP1 PUSH0 MSTORE PUSH1 0x20 PUSH0 KECCAK256 ADD PUSH0 DUP5 SWAP2 SWAP1 PUSH2 0x100 EXP DUP2 SLOAD DUP2 PUSH20 0xFFFFFFFFFFFFFFFFFFFFFFFFFFFFFFFFFFFFFFFF MUL NOT AND SWAP1 DUP4 PUSH20 0xFFFFFFFFFFFFFFFFFFFFFFFFFFFFFFFFFFFFFFFF AND MUL OR SWAP1 SSTORE POP DUP4 SWAP2 SWAP1 PUSH2 0x100 EXP DUP2 SLOAD DUP2 PUSH20 0xFFFFFFFFFFFFFFFFFFFFFFFFFFFFFFFFFFFFFFFF MUL NOT AND SWAP1 DUP4 PUSH20 0xFFFFFFFFFFFFFFFFFFFFFFFFFFFFFFFFFFFFFFFF AND MUL OR SWAP1 SSTORE POP POP POP JUMPDEST DUP1 DUP1 PUSH1 0x1 ADD SWAP2 POP POP PUSH2 0x50D JUMP JUMPDEST POP DUP1 DUP1 PUSH1 0x1 ADD SWAP2 POP POP PUSH2 0x4EF JUMP JUMPDEST POP POP POP POP JUMP JUMPDEST PUSH1 0x1 PUSH1 0x20 MSTORE DUP1 PUSH0 MSTORE PUSH1 0x40 PUSH0 KECCAK256 PUSH0 SWAP2 POP SWAP1 POP SLOAD DUP2 JUMP JUMPDEST PUSH1 0x2 DUP2 DUP2 SLOAD DUP2 LT PUSH2 0x78A JUMPI PUSH0 DUP1 REVERT JUMPDEST SWAP1 PUSH0 MSTORE PUSH1 0x20 PUSH0 KECCAK256 ADD PUSH0 SWAP2 POP SLOAD SWAP1 PUSH2 0x100 EXP SWAP1 DIV PUSH20 0xFFFFFFFFFFFFFFFFFFFFFFFFFFFFFFFFFFFFFFFF AND DUP2 JUMP JUMPDEST PUSH0 PUSH0 SWAP1 SLOAD SWAP1 PUSH2 0x100 EXP SWAP1 DIV PUSH20 0xFFFFFFFFFFFFFFFFFFFFFFFFFFFFFFFFFFFFFFFF AND PUSH20 0xFFFFFFFFFFFFFFFFFFFFFFFFFFFFFFFFFFFFFFFF AND CALLER PUSH20 0xFFFFFFFFFFFFFFFFFFFFFFFFFFFFFFFFFFFFFFFF AND EQ PUSH2 0x844 JUMPI PUSH1 0x40 MLOAD PUSH32 0x8C379A000000000000000000000000000000000000000000000000000000000 DUP2 MSTORE PUSH1 0x4 ADD PUSH2 0x83B SWAP1 PUSH2 0xD88 JUMP JUMPDEST PUSH1 0x40 MLOAD DUP1 SWAP2 SUB SWAP1 REVERT JUMPDEST PUSH0 SELFBALANCE SWAP1 POP PUSH0 DUP2 GT PUSH2 0x88A JUMPI PUSH1 0x40 MLOAD PUSH32 0x8C379A000000000000000000000000000000000000000000000000000000000 DUP2 MSTORE PUSH1 0x4 ADD PUSH2 0x881 SWAP1 PUSH2 0xDF0 JUMP JUMPDEST PUSH1 0x40 MLOAD DUP1 SWAP2 SUB SWAP1 REVERT JUMPDEST PUSH0 PUSH0 PUSH0 SWAP1 SLOAD SWAP1 PUSH2 0x100 EXP SWAP1 DIV PUSH20 0xFFFFFFFFFFFFFFFFFFFFFFFFFFFFFFFFFFFFFFFF AND PUSH20 0xFFFFFFFFFFFFFFFFFFFFFFFFFFFFFFFFFFFFFFFF AND DUP3 PUSH1 0x40 MLOAD PUSH2 0x8CF SWAP1 PUSH2 0xE3B JUMP JUMPDEST PUSH0 PUSH1 0x40 MLOAD DUP1 DUP4 SUB DUP2 DUP6 DUP8 GAS CALL SWAP3 POP POP POP RETURNDATASIZE DUP1 PUSH0 DUP2 EQ PUSH2 0x909 JUMPI PUSH1 0x40 MLOAD SWAP2 POP PUSH1 0x1F NOT PUSH1 0x3F RETURNDATASIZE ADD AND DUP3 ADD PUSH1 0x40 MSTORE RETURNDATASIZE DUP3 MSTORE RETURNDATASIZE PUSH0 PUSH1 0x20 DUP5 ADD RETURNDATACOPY PUSH2 0x90E JUMP JUMPDEST PUSH1 0x60 SWAP2 POP JUMPDEST POP POP SWAP1 POP DUP1 PUSH2 0x952 JUMPI PUSH1 0x40 MLOAD PUSH32 0x8C379A000000000000000000000000000000000000000000000000000000000 DUP2 MSTORE PUSH1 0x4 ADD PUSH2 0x949 SWAP1 PUSH2 0xE99 JUMP JUMPDEST PUSH1 0x40 MLOAD DUP1 SWAP2 SUB SWAP1 REVERT JUMPDEST POP POP JUMP JUMPDEST PUSH1 0x60 PUSH1 0x2 DUP1 SLOAD DUP1 PUSH1 0x20 MUL PUSH1 0x20 ADD PUSH1 0x40 MLOAD SWAP1 DUP2 ADD PUSH1 0x40 MSTORE DUP1 SWAP3 SWAP2 SWAP1 DUP2 DUP2 MSTORE PUSH1 0x20 ADD DUP3 DUP1 SLOAD DUP1 ISZERO PUSH2 0x9D7 JUMPI PUSH1 0x20 MUL DUP3 ADD SWAP2 SWAP1 PUSH0 MSTORE PUSH1 0x20 PUSH0 KECCAK256 SWAP1 JUMPDEST DUP2 PUSH0 SWAP1 SLOAD SWAP1 PUSH2 0x100 EXP SWAP1 DIV PUSH20 0xFFFFFFFFFFFFFFFFFFFFFFFFFFFFFFFFFFFFFFFF AND PUSH20 0xFFFFFFFFFFFFFFFFFFFFFFFFFFFFFFFFFFFFFFFF AND DUP2 MSTORE PUSH1 0x20 ADD SWAP1 PUSH1 0x1 ADD SWAP1 DUP1 DUP4 GT PUSH2 0x98E JUMPI JUMPDEST POP POP POP POP POP SWAP1 POP SWAP1 JUMP JUMPDEST PUSH0 PUSH0 SWAP1 SLOAD SWAP1 PUSH2 0x100 EXP SWAP1 DIV PUSH20 0xFFFFFFFFFFFFFFFFFFFFFFFFFFFFFFFFFFFFFFFF AND DUP2 JUMP JUMPDEST PUSH0 PUSH0 REVERT JUMPDEST PUSH0 PUSH20 0xFFFFFFFFFFFFFFFFFFFFFFFFFFFFFFFFFFFFFFFF DUP3 AND SWAP1 POP SWAP2 SWAP1 POP JUMP JUMPDEST PUSH0 PUSH2 0xA32 DUP3 PUSH2 0xA09 JUMP JUMPDEST SWAP1 POP SWAP2 SWAP1 POP JUMP JUMPDEST PUSH2 0xA42 DUP2 PUSH2 0xA28 JUMP JUMPDEST DUP2 EQ PUSH2 0xA4C JUMPI PUSH0 PUSH0 REVERT JUMPDEST POP JUMP JUMPDEST PUSH0 DUP2 CALLDATALOAD SWAP1 POP PUSH2 0xA5D DUP2 PUSH2 0xA39 JUMP JUMPDEST SWAP3 SWAP2 POP POP JUMP JUMPDEST PUSH0 PUSH1 0x20 DUP3 DUP5 SUB SLT ISZERO PUSH2 0xA78 JUMPI PUSH2 0xA77 PUSH2 0xA05 JUMP JUMPDEST JUMPDEST PUSH0 PUSH2 0xA85 DUP5 DUP3 DUP6 ADD PUSH2 0xA4F JUMP JUMPDEST SWAP2 POP POP SWAP3 SWAP2 POP POP JUMP JUMPDEST PUSH0 DUP2 SWAP1 POP SWAP2 SWAP1 POP JUMP JUMPDEST PUSH2 0xAA0 DUP2 PUSH2 0xA8E JUMP JUMPDEST DUP3 MSTORE POP POP JUMP JUMPDEST PUSH0 PUSH1 0x20 DUP3 ADD SWAP1 POP PUSH2 0xAB9 PUSH0 DUP4 ADD DUP5 PUSH2 0xA97 JUMP JUMPDEST SWAP3 SWAP2 POP POP JUMP JUMPDEST PUSH2 0xAC8 DUP2 PUSH2 0xA8E JUMP JUMPDEST DUP2 EQ PUSH2 0xAD2 JUMPI PUSH0 PUSH0 REVERT JUMPDEST POP JUMP JUMPDEST PUSH0 DUP2 CALLDATALOAD SWAP1 POP PUSH2 0xAE3 DUP2 PUSH2 0xABF JUMP JUMPDEST SWAP3 SWAP2 POP POP JUMP JUMPDEST PUSH0 PUSH1 0x20 DUP3 DUP5 SUB SLT ISZERO PUSH2 0xAFE JUMPI PUSH2 0xAFD PUSH2 0xA05 JUMP JUMPDEST JUMPDEST PUSH0 PUSH2 0xB0B DUP5 DUP3 DUP6 ADD PUSH2 0xAD5 JUMP JUMPDEST SWAP2 POP POP SWAP3 SWAP2 POP POP JUMP JUMPDEST PUSH2 0xB1D DUP2 PUSH2 0xA28 JUMP JUMPDEST DUP3 MSTORE POP POP JUMP JUMPDEST PUSH0 PUSH1 0x20 DUP3 ADD SWAP1 POP PUSH2 0xB36 PUSH0 DUP4 ADD DUP5 PUSH2 0xB14 JUMP JUMPDEST SWAP3 SWAP2 POP POP JUMP JUMPDEST PUSH0 DUP2 MLOAD SWAP1 POP SWAP2 SWAP1 POP JUMP JUMPDEST PUSH0 DUP3 DUP3 MSTORE PUSH1 0x20 DUP3 ADD SWAP1 POP SWAP3 SWAP2 POP POP JUMP JUMPDEST PUSH0 DUP2 SWAP1 POP PUSH1 0x20 DUP3 ADD SWAP1 POP SWAP2 SWAP1 POP JUMP JUMPDEST PUSH2 0xB6E DUP2 PUSH2 0xA28 JUMP JUMPDEST DUP3 MSTORE POP POP JUMP JUMPDEST PUSH0 PUSH2 0xB7F DUP4 DUP4 PUSH2 0xB65 JUMP JUMPDEST PUSH1 0x20 DUP4 ADD SWAP1 POP SWAP3 SWAP2 POP POP JUMP JUMPDEST PUSH0 PUSH1 0x20 DUP3 ADD SWAP1 POP SWAP2 SWAP1 POP JUMP JUMPDEST PUSH0 PUSH2 0xBA1 DUP3 PUSH2 0xB3C JUMP JUMPDEST PUSH2 0xBAB DUP2 DUP6 PUSH2 0xB46 JUMP JUMPDEST SWAP4 POP PUSH2 0xBB6 DUP4 PUSH2 0xB56 JUMP JUMPDEST DUP1 PUSH0 JUMPDEST DUP4 DUP2 LT ISZERO PUSH2 0xBE6 JUMPI DUP2 MLOAD PUSH2 0xBCD DUP9 DUP3 PUSH2 0xB74 JUMP JUMPDEST SWAP8 POP PUSH2 0xBD8 DUP4 PUSH2 0xB8B JUMP JUMPDEST SWAP3 POP POP PUSH1 0x1 DUP2 ADD SWAP1 POP PUSH2 0xBB9 JUMP JUMPDEST POP DUP6 SWAP4 POP POP POP POP SWAP3 SWAP2 POP POP JUMP JUMPDEST PUSH0 PUSH1 0x20 DUP3 ADD SWAP1 POP DUP2 DUP2 SUB PUSH0 DUP4 ADD MSTORE PUSH2 0xC0B DUP2 DUP5 PUSH2 0xB97 JUMP JUMPDEST SWAP1 POP SWAP3 SWAP2 POP POP JUMP JUMPDEST PUSH0 DUP3 DUP3 MSTORE PUSH1 0x20 DUP3 ADD SWAP1 POP SWAP3 SWAP2 POP POP JUMP JUMPDEST PUSH32 0x4465706F73697420616D6F756E74206D75737420626520677265617465722074 PUSH0 DUP3 ADD MSTORE PUSH32 0x68616E207A65726F000000000000000000000000000000000000000000000000 PUSH1 0x20 DUP3 ADD MSTORE POP JUMP JUMPDEST PUSH0 PUSH2 0xC7D PUSH1 0x28 DUP4 PUSH2 0xC13 JUMP JUMPDEST SWAP2 POP PUSH2 0xC88 DUP3 PUSH2 0xC23 JUMP JUMPDEST PUSH1 0x40 DUP3 ADD SWAP1 POP SWAP2 SWAP1 POP JUMP JUMPDEST PUSH0 PUSH1 0x20 DUP3 ADD SWAP1 POP DUP2 DUP2 SUB PUSH0 DUP4 ADD MSTORE PUSH2 0xCAA DUP2 PUSH2 0xC71 JUMP JUMPDEST SWAP1 POP SWAP2 SWAP1 POP JUMP JUMPDEST PUSH32 0x4E487B7100000000000000000000000000000000000000000000000000000000 PUSH0 MSTORE PUSH1 0x11 PUSH1 0x4 MSTORE PUSH1 0x24 PUSH0 REVERT JUMPDEST PUSH0 PUSH2 0xCE8 DUP3 PUSH2 0xA8E JUMP JUMPDEST SWAP2 POP PUSH2 0xCF3 DUP4 PUSH2 0xA8E JUMP JUMPDEST SWAP3 POP DUP3 DUP3 ADD SWAP1 POP DUP1 DUP3 GT ISZERO PUSH2 0xD0B JUMPI PUSH2 0xD0A PUSH2 0xCB1 JUMP JUMPDEST JUMPDEST SWAP3 SWAP2 POP POP JUMP JUMPDEST PUSH32 0x4E487B7100000000000000000000000000000000000000000000000000000000 PUSH0 MSTORE PUSH1 0x32 PUSH1 0x4 MSTORE PUSH1 0x24 PUSH0 REVERT JUMPDEST PUSH32 0x4F6E6C792061646D696E2063616E2077697468647261772066756E6473000000 PUSH0 DUP3 ADD MSTORE POP JUMP JUMPDEST PUSH0 PUSH2 0xD72 PUSH1 0x1D DUP4 PUSH2 0xC13 JUMP JUMPDEST SWAP2 POP PUSH2 0xD7D DUP3 PUSH2 0xD3E JUMP JUMPDEST PUSH1 0x20 DUP3 ADD SWAP1 POP SWAP2 SWAP1 POP JUMP JUMPDEST PUSH0 PUSH1 0x20 DUP3 ADD SWAP1 POP DUP2 DUP2 SUB PUSH0 DUP4 ADD MSTORE PUSH2 0xD9F DUP2 PUSH2 0xD66 JUMP JUMPDEST SWAP1 POP SWAP2 SWAP1 POP JUMP JUMPDEST PUSH32 0x4E6F2066756E647320746F207769746864726177000000000000000000000000 PUSH0 DUP3 ADD MSTORE POP JUMP JUMPDEST PUSH0 PUSH2 0xDDA PUSH1 0x14 DUP4 PUSH2 0xC13 JUMP JUMPDEST SWAP2 POP PUSH2 0xDE5 DUP3 PUSH2 0xDA6 JUMP JUMPDEST PUSH1 0x20 DUP3 ADD SWAP1 POP SWAP2 SWAP1 POP JUMP JUMPDEST PUSH0 PUSH1 0x20 DUP3 ADD SWAP1 POP DUP2 DUP2 SUB PUSH0 DUP4 ADD MSTORE PUSH2 0xE07 DUP2 PUSH2 0xDCE JUMP JUMPDEST SWAP1 POP SWAP2 SWAP1 POP JUMP JUMPDEST PUSH0 DUP2 SWAP1 POP SWAP3 SWAP2 POP POP JUMP JUMPDEST POP JUMP JUMPDEST PUSH0 PUSH2 0xE26 PUSH0 DUP4 PUSH2 0xE0E JUMP JUMPDEST SWAP2 POP PUSH2 0xE31 DUP3 PUSH2 0xE18 JUMP JUMPDEST PUSH0 DUP3 ADD SWAP1 POP SWAP2 SWAP1 POP JUMP JUMPDEST PUSH0 PUSH2 0xE45 DUP3 PUSH2 0xE1B JUMP JUMPDEST SWAP2 POP DUP2 SWAP1 POP SWAP2 SWAP1 POP JUMP JUMPDEST PUSH32 0x5472616E73666572206661696C65640000000000000000000000000000000000 PUSH0 DUP3 ADD MSTORE POP JUMP JUMPDEST PUSH0 PUSH2 0xE83 PUSH1 0xF DUP4 PUSH2 0xC13 JUMP JUMPDEST SWAP2 POP PUSH2 0xE8E DUP3 PUSH2 0xE4F JUMP JUMPDEST PUSH1 0x20 DUP3 ADD SWAP1 POP SWAP2 SWAP1 POP JUMP JUMPDEST PUSH0 PUSH1 0x20 DUP3 ADD SWAP1 POP DUP2 DUP2 SUB PUSH0 DUP4 ADD MSTORE PUSH2 0xEB0 DUP2 PUSH2 0xE77 JUMP JUMPDEST SWAP1 POP SWAP2 SWAP1 POP JUMP INVALID LOG2 PUSH5 0x6970667358 0x22 SLT KECCAK256 EXP CREATE2 EXTCODEHASH SDIV DUP16 GT EXTDELEGATECALL 0x25 DUP2 SUB PUSH7 0xB8B39DC0CDB9FE EXTCODECOPY 0xBB DUP3 REVERT BLOBHASH 0xD6 0xB3 GT OR SWAP6 0x2A CLZ CREATE2 0xC1 PUSH5 0x736F6C6343 STOP ADDMOD 0x1F STOP CALLER "
				},
				"gasEstimates": {
					"creation": {
						"codeDepositCost": "764200",
						"executionCost": "25061",
						"totalCost": "789261"
					},
					"external": {
						"admin()": "2595",
						"balances(address)": "2780",
						"deposit()": "infinite",
						"getTopDepositors()": "infinite",
						"topDepositors(uint256)": "4944",
						"withdraw()": "infinite"
					},
					"internal": {
						"recomputeTopDepositors()": "infinite"
					}
				},
				"methodIdentifiers": {
					"admin()": "f851a440",
					"balances(address)": "27e235e3",
					"deposit()": "d0e30db0",
					"getTopDepositors()": "81454f71",
					"topDepositors(uint256)": "30861078",
					"withdraw()": "3ccfd60b"
				}
			},
			"storageLayout": {
				"storage": [
					{
						"astId": 3,
						"contract": "contracts/bank.sol:Bank",
						"label": "admin",
						"offset": 0,
						"slot": "0",
						"type": "t_address"
					},
					{
						"astId": 7,
						"contract": "contracts/bank.sol:Bank",
						"label": "balances",
						"offset": 0,
						"slot": "1",
						"type": "t_mapping(t_address,t_uint256)"
					},
					{
						"astId": 10,
						"contract": "contracts/bank.sol:Bank",
						"label": "topDepositors",
						"offset": 0,
						"slot": "2",
						"type": "t_array(t_address)dyn_storage"
					}
				],
				"types": {
					"t_address": {
						"encoding": "inplace",
						"label": "address",
						"numberOfBytes": "20"
					},
					"t_array(t_address)dyn_storage": {
						"base": "t_address",
						"encoding": "dynamic_array",
						"label": "address[]",
						"numberOfBytes": "32"
					},
					"t_mapping(t_address,t_uint256)": {
						"encoding": "mapping",
						"key": "t_address",
						"label": "mapping(address => uint256)",
						"numberOfBytes": "32",
						"value": "t_uint256"
					},
					"t_uint256": {
						"encoding": "inplace",
						"label": "uint256",
						"numberOfBytes": "32"
					}
				}
			},
			"userdoc": {
				"kind": "user",
				"methods": {},
				"version": 1
			}
		}
	}
}