{"abi":[{"type":"constructor","inputs":[{"name":"_paymentToken","type":"address","internalType":"address"}],"stateMutability":"nonpayable"},{"type":"function","name":"buyNFT","inputs":[{"name":"nftContract","type":"address","internalType":"address"},{"name":"tokenId","type":"uint256","internalType":"uint256"}],"outputs":[],"stateMutability":"nonpayable"},{"type":"function","name":"delist","inputs":[{"name":"nftContract","type":"address","internalType":"address"},{"name":"tokenId","type":"uint256","internalType":"uint256"}],"outputs":[],"stateMutability":"nonpayable"},{"type":"function","name":"getListing","inputs":[{"name":"nftContract","type":"address","internalType":"address"},{"name":"tokenId","type":"uint256","internalType":"uint256"}],"outputs":[{"name":"","type":"tuple","internalType":"struct NFTMarket.Listing","components":[{"name":"seller","type":"address","internalType":"address"},{"name":"nftContract","type":"address","internalType":"address"},{"name":"tokenId","type":"uint256","internalType":"uint256"},{"name":"price","type":"uint256","internalType":"uint256"},{"name":"isActive","type":"bool","internalType":"bool"}]}],"stateMutability":"view"},{"type":"function","name":"list","inputs":[{"name":"nftContract","type":"address","internalType":"address"},{"name":"tokenId","type":"uint256","internalType":"uint256"},{"name":"price","type":"uint256","internalType":"uint256"}],"outputs":[],"stateMutability":"nonpayable"},{"type":"function","name":"listings","inputs":[{"name":"","type":"address","internalType":"address"},{"name":"","type":"uint256","internalType":"uint256"}],"outputs":[{"name":"seller","type":"address","internalType":"address"},{"name":"nftContract","type":"address","internalType":"address"},{"name":"tokenId","type":"uint256","internalType":"uint256"},{"name":"price","type":"uint256","internalType":"uint256"},{"name":"isActive","type":"bool","internalType":"bool"}],"stateMutability":"view"},{"type":"function","name":"paymentToken","inputs":[],"outputs":[{"name":"","type":"address","internalType":"contract IERC20"}],"stateMutability":"view"},{"type":"function","name":"tokensReceived","inputs":[{"name":"from","type":"address","internalType":"address"},{"name":"amount","type":"uint256","internalType":"uint256"},{"name":"data","type":"bytes","internalType":"bytes"}],"outputs":[{"name":"","type":"bool","internalType":"bool"}],"stateMutability":"nonpayable"},{"type":"event","name":"NFTDelisted","inputs":[{"name":"seller","type":"address","indexed":true,"internalType":"address"},{"name":"nftContract","type":"address","indexed":true,"internalType":"address"},{"name":"tokenId","type":"uint256","indexed":true,"internalType":"uint256"}],"anonymous":false},{"type":"event","name":"NFTListed","inputs":[{"name":"seller","type":"address","indexed":true,"internalType":"address"},{"name":"nftContract","type":"address","indexed":true,"internalType":"address"},{"name":"tokenId","type":"uint256","indexed":true,"internalType":"uint256"},{"name":"price","type":"uint256","indexed":false,"internalType":"uint256"}],"anonymous":false},{"type":"event","name":"NFTSold","inputs":[{"name":"seller","type":"address","indexed":true,"internalType":"address"},{"name":"buyer","type":"address","indexed":true,"internalType":"address"},{"name":"nftContract","type":"address","indexed":true,"internalType":"address"},{"name":"tokenId","type":"uint256","indexed":false,"internalType":"uint256"},{"name":"price","type":"uint256","indexed":false,"internalType":"uint256"}],"anonymous":false}],"bytecode":{"object":"0x6080604052348015600e575f5ffd5b506040516110fa3803806110fa833981016040819052602b9160a7565b6001600160a01b03811660845760405162461bcd60e51b815260206004820181905260248201527f4e46544d61726b65743a20696e76616c6964207061796d656e7420746f6b656e604482015260640160405180910390fd5b5f80546001600160a01b0319166001600160a01b039290921691909117905560d2565b5f6020828403121560b6575f5ffd5b81516001600160a01b038116811460cb575f5ffd5b9392505050565b61101b806100df5f395ff3fe608060405234801561000f575f5ffd5b5060043610610079575f3560e01c8063a82ba76f11610058578063a82ba76f14610195578063d0314263146101aa578063dda342bb146101cd578063f074258e146101e0575f5ffd5b806207df301461007d5780633013ce291461010b57806388700d1c14610135575b5f5ffd5b6100d161008b366004610e49565b600160208181525f93845260408085209091529183529120805491810154600282015460038301546004909301546001600160a01b039485169490921692909160ff1685565b604080516001600160a01b0396871681529590941660208601529284019190915260608301521515608082015260a0015b60405180910390f35b5f5461011d906001600160a01b031681565b6040516001600160a01b039091168152602001610102565b610148610143366004610e49565b6101f3565b604051610102919081516001600160a01b03908116825260208084015190911690820152604080830151908201526060808301519082015260809182015115159181019190915260a00190565b6101a86101a3366004610e49565b610288565b005b6101bd6101b8366004610e73565b6104b5565b6040519015158152602001610102565b6101a86101db366004610ef8565b6108f3565b6101a86101ee366004610e49565b610cef565b6040805160a0810182525f80825260208201819052918101829052606081018290526080810191909152506001600160a01b038083165f908152600160208181526040808420868552825292839020835160a08101855281548616815292810154909416908201526002830154918101919091526003820154606082015260049091015460ff16151560808201525b92915050565b6001600160a01b0382165f9081526001602090815260408083208484529091529020600481015460ff166102d75760405162461bcd60e51b81526004016102ce90610f2a565b60405180910390fd5b8054336001600160a01b03909116036103325760405162461bcd60e51b815260206004820152601d60248201527f4e46544d61726b65743a2063616e6e6f7420627579206f776e204e465400000060448201526064016102ce565b600381015481546004808401805460ff191690555f546040516323b872dd60e01b81526001600160a01b0393841693909116916323b872dd9161037b9133918691889101610f61565b6020604051808303815f875af1158015610397573d5f5f3e3d5ffd5b505050506040513d601f19601f820116820180604052508101906103bb9190610f85565b6104075760405162461bcd60e51b815260206004820152601960248201527f4e46544d61726b65743a207061796d656e74206661696c65640000000000000060448201526064016102ce565b6040516323b872dd60e01b81526001600160a01b038616906323b872dd9061043790309033908990600401610f61565b5f604051808303815f87803b15801561044e575f5ffd5b505af1158015610460573d5f5f3e3d5ffd5b505060408051878152602081018690526001600160a01b03808a1694503393508516917f1b81ea9818518fffa07ee623cfd9ce8af1900f3e0c918f2ca4fcfc9745cdc165910160405180910390a45050505050565b5f80546001600160a01b0316331461050f5760405162461bcd60e51b815260206004820152601860248201527f4e46544d61726b65743a20696e76616c696420746f6b656e000000000000000060448201526064016102ce565b60408210156105605760405162461bcd60e51b815260206004820152601760248201527f4e46544d61726b65743a20696e76616c6964206461746100000000000000000060448201526064016102ce565b5f8061056e84860186610e49565b6001600160a01b0382165f908152600160209081526040808320848452909152902060048101549294509092509060ff166105bb5760405162461bcd60e51b81526004016102ce90610f2a565b80546001600160a01b03808a169116036106175760405162461bcd60e51b815260206004820152601d60248201527f4e46544d61726b65743a2063616e6e6f7420627579206f776e204e465400000060448201526064016102ce565b806003015487101561066b5760405162461bcd60e51b815260206004820152601f60248201527f4e46544d61726b65743a20696e73756666696369656e74207061796d656e740060448201526064016102ce565b600381015481546004808401805460ff191690555f5460405163a9059cbb60e01b81526001600160a01b03938416928101839052602481018590529192169063a9059cbb906044016020604051808303815f875af11580156106cf573d5f5f3e3d5ffd5b505050506040513d601f19601f820116820180604052508101906106f39190610f85565b61074b5760405162461bcd60e51b815260206004820152602360248201527f4e46544d61726b65743a207061796d656e7420746f2073656c6c6572206661696044820152621b195960ea1b60648201526084016102ce565b81891115610826575f546001600160a01b031663a9059cbb8b61076e858d610fab565b6040516001600160e01b031960e085901b1681526001600160a01b03909216600483015260248201526044016020604051808303815f875af11580156107b6573d5f5f3e3d5ffd5b505050506040513d601f19601f820116820180604052508101906107da9190610f85565b6108265760405162461bcd60e51b815260206004820152601860248201527f4e46544d61726b65743a20726566756e64206661696c6564000000000000000060448201526064016102ce565b6040516323b872dd60e01b81526001600160a01b038616906323b872dd906108569030908e908990600401610f61565b5f604051808303815f87803b15801561086d575f5ffd5b505af115801561087f573d5f5f3e3d5ffd5b50505050846001600160a01b03168a6001600160a01b0316826001600160a01b03167f1b81ea9818518fffa07ee623cfd9ce8af1900f3e0c918f2ca4fcfc9745cdc16587866040516108db929190918252602082015260400190565b60405180910390a45060019998505050505050505050565b5f81116109525760405162461bcd60e51b815260206004820152602760248201527f4e46544d61726b65743a207072696365206d75737420626520677265617465726044820152660207468616e20360cc1b60648201526084016102ce565b6040516331a9108f60e11b815260048101839052839033906001600160a01b03831690636352211e90602401602060405180830381865afa158015610999573d5f5f3e3d5ffd5b505050506040513d601f19601f820116820180604052508101906109bd9190610fca565b6001600160a01b031614610a135760405162461bcd60e51b815260206004820152601860248201527f4e46544d61726b65743a206e6f7420746865206f776e6572000000000000000060448201526064016102ce565b60405163020604bf60e21b81526004810184905230906001600160a01b0383169063081812fc90602401602060405180830381865afa158015610a58573d5f5f3e3d5ffd5b505050506040513d601f19601f82011682018060405250810190610a7c9190610fca565b6001600160a01b03161480610af8575060405163e985e9c560e01b81523360048201523060248201526001600160a01b0382169063e985e9c590604401602060405180830381865afa158015610ad4573d5f5f3e3d5ffd5b505050506040513d601f19601f82011682018060405250810190610af89190610f85565b610b445760405162461bcd60e51b815260206004820152601760248201527f4e46544d61726b65743a206e6f7420617070726f76656400000000000000000060448201526064016102ce565b6040516323b872dd60e01b81526001600160a01b038216906323b872dd90610b7490339030908890600401610f61565b5f604051808303815f87803b158015610b8b575f5ffd5b505af1158015610b9d573d5f5f3e3d5ffd5b505050506040518060a00160405280336001600160a01b03168152602001856001600160a01b031681526020018481526020018381526020016001151581525060015f866001600160a01b03166001600160a01b031681526020019081526020015f205f8581526020019081526020015f205f820151815f015f6101000a8154816001600160a01b0302191690836001600160a01b031602179055506020820151816001015f6101000a8154816001600160a01b0302191690836001600160a01b0316021790555060408201518160020155606082015181600301556080820151816004015f6101000a81548160ff02191690831515021790555090505082846001600160a01b0316336001600160a01b03167fbeab3a2bb824b124a8a1eb465eec003338d61b414db132d37e9b3a984fdcf01085604051610ce191815260200190565b60405180910390a450505050565b6001600160a01b0382165f9081526001602090815260408083208484529091529020600481015460ff16610d355760405162461bcd60e51b81526004016102ce90610f2a565b80546001600160a01b03163314610d8e5760405162461bcd60e51b815260206004820152601960248201527f4e46544d61726b65743a206e6f74207468652073656c6c65720000000000000060448201526064016102ce565b6004808201805460ff191690556040516323b872dd60e01b81526001600160a01b038516916323b872dd91610dc99130913391889101610f61565b5f604051808303815f87803b158015610de0575f5ffd5b505af1158015610df2573d5f5f3e3d5ffd5b50506040518492506001600160a01b038616915033907ffc314074f528769d77ad4a29ede7c622894f632282e936ebefff2646a598c2ee905f90a4505050565b6001600160a01b0381168114610e46575f5ffd5b50565b5f5f60408385031215610e5a575f5ffd5b8235610e6581610e32565b946020939093013593505050565b5f5f5f5f60608587031215610e86575f5ffd5b8435610e9181610e32565b935060208501359250604085013567ffffffffffffffff811115610eb3575f5ffd5b8501601f81018713610ec3575f5ffd5b803567ffffffffffffffff811115610ed9575f5ffd5b876020828401011115610eea575f5ffd5b949793965060200194505050565b5f5f5f60608486031215610f0a575f5ffd5b8335610f1581610e32565b95602085013595506040909401359392505050565b60208082526019908201527f4e46544d61726b65743a204e4654206e6f74206c697374656400000000000000604082015260600190565b6001600160a01b039384168152919092166020820152604081019190915260600190565b5f60208284031215610f95575f5ffd5b81518015158114610fa4575f5ffd5b9392505050565b8181038181111561028257634e487b7160e01b5f52601160045260245ffd5b5f60208284031215610fda575f5ffd5b8151610fa481610e3256fea264697066735822122094ace7f8795b82d4ba90db0e90b3843b0a1be9b83576b25e076019c497b6776964736f6c634300081c0033","linkReferences":{}},"methodIdentifiers":{"buyNFT(address,uint256)":"a82ba76f","delist(address,uint256)":"f074258e","getListing(address,uint256)":"88700d1c","list(address,uint256,uint256)":"dda342bb","listings(address,uint256)":"0007df30","paymentToken()":"3013ce29","tokensReceived(address,uint256,bytes)":"d0314263"},"id":9}